{
  "contractName": "Identity",
  "abi": [
    {
      "constant": true,
      "inputs": [],
      "name": "subject",
      "outputs": [
        {
          "name": "",
          "type": "string"
        }
      ],
      "payable": false,
      "stateMutability": "view",
      "type": "function"
    },
    {
      "constant": true,
      "inputs": [],
      "name": "audience",
      "outputs": [
        {
          "name": "",
          "type": "string"
        }
      ],
      "payable": false,
      "stateMutability": "view",
      "type": "function"
    },
    {
      "constant": true,
      "inputs": [],
      "name": "keys",
      "outputs": [
        {
          "name": "",
          "type": "address"
        }
      ],
      "payable": false,
      "stateMutability": "view",
      "type": "function"
    },
    {
      "constant": true,
      "inputs": [
        {
          "name": "",
          "type": "address"
        }
      ],
      "name": "accounts",
      "outputs": [
        {
          "name": "",
          "type": "bool"
        }
      ],
      "payable": false,
      "stateMutability": "view",
      "type": "function"
    },
    {
      "inputs": [
        {
          "name": "sub",
          "type": "string"
        },
        {
          "name": "aud",
          "type": "string"
        },
        {
          "name": "jwks",
          "type": "address"
        }
      ],
      "payable": true,
      "stateMutability": "payable",
      "type": "constructor"
    },
    {
      "constant": false,
      "inputs": [
        {
          "name": "headerJson",
          "type": "string"
        },
        {
          "name": "payloadJson",
          "type": "string"
        },
        {
          "name": "signature",
          "type": "bytes"
        }
      ],
      "name": "recover",
      "outputs": [],
      "payable": false,
      "stateMutability": "nonpayable",
      "type": "function"
    },
    {
      "constant": true,
      "inputs": [],
      "name": "getAccounts",
      "outputs": [
        {
          "name": "",
          "type": "address[]"
        }
      ],
      "payable": false,
      "stateMutability": "view",
      "type": "function"
    }
  ],
  "bytecode": "0x6080604052604051620042a8380380620042a8833981018060405260608110156200002957600080fd5b8101908080516401000000008111156200004257600080fd5b828101905060208101848111156200005957600080fd5b81518560018202830111640100000000821117156200007757600080fd5b505092919060200180516401000000008111156200009457600080fd5b82810190506020810184811115620000ab57600080fd5b8151856001820283011164010000000082111715620000c957600080fd5b50509291906020018051906020019092919050505060016000803373ffffffffffffffffffffffffffffffffffffffff1673ffffffffffffffffffffffffffffffffffffffff16815260200190815260200160002060006101000a81548160ff02191690831515021790555060013390806001815401808255809150509060018203906000526020600020016000909192909190916101000a81548173ffffffffffffffffffffffffffffffffffffffff021916908373ffffffffffffffffffffffffffffffffffffffff160217905550508160029080519060200190620001b392919062000217565b508260039080519060200190620001cc92919062000217565b5080600460006101000a81548173ffffffffffffffffffffffffffffffffffffffff021916908373ffffffffffffffffffffffffffffffffffffffff160217905550505050620002c6565b828054600181600116156101000203166002900490600052602060002090601f016020900481019282601f106200025a57805160ff19168380011785556200028b565b828001600101855582156200028b579182015b828111156200028a5782518255916020019190600101906200026d565b5b5090506200029a91906200029e565b5090565b620002c391905b80821115620002bf576000816000905550600101620002a5565b5090565b90565b613fd280620002d66000396000f3fe608060405234801561001057600080fd5b50600436106100625760003560e01c80630a59a98c146100675780631ee1f800146100ea578063307540f61461016d5780635e5c06e2146101b75780637fac7eec146102135780638a48ac03146103fc575b600080fd5b61006f61045b565b6040518080602001828103825283818151815260200191508051906020019080838360005b838110156100af578082015181840152602081019050610094565b50505050905090810190601f1680156100dc5780820380516001836020036101000a031916815260200191505b509250505060405180910390f35b6100f26104f9565b6040518080602001828103825283818151815260200191508051906020019080838360005b83811015610132578082015181840152602081019050610117565b50505050905090810190601f16801561015f5780820380516001836020036101000a031916815260200191505b509250505060405180910390f35b610175610597565b604051808273ffffffffffffffffffffffffffffffffffffffff1673ffffffffffffffffffffffffffffffffffffffff16815260200191505060405180910390f35b6101f9600480360360208110156101cd57600080fd5b81019080803573ffffffffffffffffffffffffffffffffffffffff1690602001909291905050506105bd565b604051808215151515815260200191505060405180910390f35b6103fa6004803603606081101561022957600080fd5b810190808035906020019064010000000081111561024657600080fd5b82018360208201111561025857600080fd5b8035906020019184600183028401116401000000008311171561027a57600080fd5b91908080601f016020809104026020016040519081016040528093929190818152602001838380828437600081840152601f19601f820116905080830192505050505050509192919290803590602001906401000000008111156102dd57600080fd5b8201836020820111156102ef57600080fd5b8035906020019184600183028401116401000000008311171561031157600080fd5b91908080601f016020809104026020016040519081016040528093929190818152602001838380828437600081840152601f19601f8201169050808301925050505050505091929192908035906020019064010000000081111561037457600080fd5b82018360208201111561038657600080fd5b803590602001918460018302840111640100000000831117156103a857600080fd5b91908080601f016020809104026020016040519081016040528093929190818152602001838380828437600081840152601f19601f8201169050808301925050505050505091929192905050506105dd565b005b610404610bf4565b6040518080602001828103825283818151815260200191508051906020019060200280838360005b8381101561044757808201518184015260208101905061042c565b505050509050019250505060405180910390f35b60038054600181600116156101000203166002900480601f0160208091040260200160405190810160405280929190818152602001828054600181600116156101000203166002900480156104f15780601f106104c6576101008083540402835291602001916104f1565b820191906000526020600020905b8154815290600101906020018083116104d457829003601f168201915b505050505081565b60028054600181600116156101000203166002900480601f01602080910402602001604051908101604052809291908181526020018280546001816001161561010002031660029004801561058f5780601f106105645761010080835404028352916020019161058f565b820191906000526020600020905b81548152906001019060200180831161057257829003601f168201915b505050505081565b600460009054906101000a900473ffffffffffffffffffffffffffffffffffffffff1681565b60006020528060005260406000206000915054906101000a900460ff1681565b60606105e884610c82565b905060606105f584610c82565b90506060600260405190808252806020026020018201604052801561063457816020015b610621613d32565b8152602001906001900390816106195790505b50905061064083610fed565b81600081518110151561064f57fe5b9060200190602002018190525061066582610fed565b81600181518110151561067457fe5b9060200190602002018190525060606106d3826106c56040805190810160405280600181526020017f2e00000000000000000000000000000000000000000000000000000000000000815250610fed565b61101b90919063ffffffff16565b905060606106e08861117f565b905060606106ed8261151c565b905060606106fa83611542565b905060006107158984848861172c909392919063ffffffff16565b14151561078a576040517f08c379a000000000000000000000000000000000000000000000000000000000815260040180806020018281038252601a8152602001807f525341207369676e617475726520636865636b206661696c656400000000000081525060200191505060405180910390fd5b60608060606107988c6117e3565b925092509250600061084d60028054600181600116156101000203166002900480601f0160208091040260200160405190810160405280929190818152602001828054600181600116156101000203166002900480156108395780601f1061080e57610100808354040283529160200191610839565b820191906000526020600020905b81548152906001019060200180831161081c57829003601f168201915b505050505085611e2590919063ffffffff16565b1480610857575060015b15156108cb576040517f08c379a00000000000000000000000000000000000000000000000000000000081526004018080602001828103825260178152602001807f41756469656e636520646f6573206e6f74206d6174636800000000000000000081525060200191505060405180910390fd5b600061097a60038054600181600116156101000203166002900480601f0160208091040260200160405190810160405280929190818152602001828054600181600116156101000203166002900480156109665780601f1061093b57610100808354040283529160200191610966565b820191906000526020600020905b81548152906001019060200180831161094957829003601f168201915b505050505083611e2590919063ffffffff16565b1415156109ef576040517f08c379a00000000000000000000000000000000000000000000000000000000081526004018080602001828103825260168152602001807f5375626a65637420646f6573206e6f74206d617463680000000000000000000081525060200191505060405180910390fd5b6060610a4833604051602001808273ffffffffffffffffffffffffffffffffffffffff1673ffffffffffffffffffffffffffffffffffffffff1660601b8152601401915050604051602081830303815290604052610c82565b90506000610a5f8483611e2590919063ffffffff16565b141515610ad4576040517f08c379a000000000000000000000000000000000000000000000000000000000815260040180806020018281038252601b8152602001807f53656e64657220646f6573206e6f74206d61746368206e6f6e6365000000000081525060200191505060405180910390fd5b6000803373ffffffffffffffffffffffffffffffffffffffff1673ffffffffffffffffffffffffffffffffffffffff16815260200190815260200160002060009054906101000a900460ff161515610be45760016000803373ffffffffffffffffffffffffffffffffffffffff1673ffffffffffffffffffffffffffffffffffffffff16815260200190815260200160002060006101000a81548160ff02191690831515021790555060013390806001815401808255809150509060018203906000526020600020016000909192909190916101000a81548173ffffffffffffffffffffffffffffffffffffffff021916908373ffffffffffffffffffffffffffffffffffffffff160217905550505b5050505050505050505050505050565b60606001805480602002602001604051908101604052809291908181526020018280548015610c7857602002820191906000526020600020905b8160009054906101000a900473ffffffffffffffffffffffffffffffffffffffff1673ffffffffffffffffffffffffffffffffffffffff1681526020019060010190808311610c2e575b5050505050905090565b606080829050600060038251811515610c9757fe5b0690506000600382600303811515610cab57fe5b06600460036002865101811515610cbe57fe5b04020390506060816040519080825280601f01601f191660200182016040528015610cf85781602001600182028038833980820191505090505b509050600080905060008090505b855160038301111515610e8b57610d818683815181101515610d2457fe5b90602001015160f81c60f81b60f81c60ff168760018501815181101515610d4757fe5b90602001015160f81c60f81b60f81c60ff168860028601815181101515610d6a57fe5b90602001015160f81c60f81b60f81c60ff16611fef565b8685815181101515610d8f57fe5b90602001018760018701815181101515610da557fe5b90602001018860028801815181101515610dbb57fe5b90602001018960038901815181101515610dd157fe5b9060200101847effffffffffffffffffffffffffffffffffffffffffffffffffffffffffffff191660001a9053847effffffffffffffffffffffffffffffffffffffffffffffffffffffffffffff191660001a9053847effffffffffffffffffffffffffffffffffffffffffffffffffffffffffffff191660001a9053847effffffffffffffffffffffffffffffffffffffffffffffffffffffffffffff191660001a905350505050600481019050600382019150610d06565b600085141515610fdf5760008686885103815181101515610ea857fe5b90602001015160f81c60f81b60f81c905060008090506002871415610eeb57876001895103815181101515610ed957fe5b90602001015160f81c60f81b60f81c90505b600080600080610f038660ff168660ff166000611fef565b9350935093509350838988815181101515610f1a57fe5b9060200101907effffffffffffffffffffffffffffffffffffffffffffffffffffffffffffff1916908160001a905350828960018901815181101515610f5c57fe5b9060200101907effffffffffffffffffffffffffffffffffffffffffffffffffffffffffffff1916908160001a90535060028b1415610fd857818960028901815181101515610fa757fe5b9060200101907effffffffffffffffffffffffffffffffffffffffffffffffffffffffffffff1916908160001a9053505b5050505050505b829650505050505050919050565b610ff5613d4c565b600060208301905060408051908101604052808451815260200182815250915050919050565b606060008251141561103f5760206040519081016040528060008152509050611179565b60006001835103846000015102905060008090505b835181101561108a57838181518110151561106b57fe5b9060200190602002015160000151820191508080600101915050611054565b506060816040519080825280601f01601f1916602001820160405280156110c05781602001600182028038833980820191505090505b509050600060208201905060008090505b85518110156111715761111b8287838151811015156110ec57fe5b9060200190602002015160200151888481518110151561110857fe5b9060200190602002015160000151612114565b858181518110151561112957fe5b90602001906020020151600001518201915060018651038110156111645761115a8288602001518960000151612114565b8660000151820191505b80806001019150506110d1565b508193505050505b92915050565b606060006060600061119b60148661215f90919063ffffffff16565b925092509250600083141515611219576040517f08c379a00000000000000000000000000000000000000000000000000000000081526004018080602001828103825260118152602001807f4a534f4e207061727365206661696c656400000000000000000000000000000081525060200191505060405180910390fd5b6001600481111561122657fe5b82600081518110151561123557fe5b9060200190602002015160000151600481111561124e57fe5b1415156112c3576040517f08c379a000000000000000000000000000000000000000000000000000000000815260040180806020018281038252601c8152602001807f4578706563746564204a575420746f20626520616e206f626a6563740000000081525060200191505060405180910390fd5b6000600190505b8181101561151257600360048111156112df57fe5b83828151811015156112ed57fe5b9060200190602002015160000151600481111561130657fe5b14151561135e576040517f08c379a0000000000000000000000000000000000000000000000000000000008152600401808060200182810382526028815260200180613e7f6028913960400191505060405180910390fd5b60606113ab848381518110151561137157fe5b9060200190602002015160200151858481518110151561138d57fe5b906020019060200201516060015189612dd89092919063ffffffff16565b905060006113f76040805190810160405280600381526020017f6b6964000000000000000000000000000000000000000000000000000000000081525083611e2590919063ffffffff16565b1415611506576003600481111561140a57fe5b846001840181518110151561141b57fe5b9060200190602002015160000151600481111561143457fe5b1415156114a9576040517f08c379a000000000000000000000000000000000000000000000000000000000815260040180806020018281038252601b8152602001807f4578706563746564206b696420746f206265206120737472696e67000000000081525060200191505060405180910390fd5b6114fa84600184018151811015156114bd57fe5b906020019060200201516020015185600185018151811015156114dc57fe5b906020019060200201516060015189612dd89092919063ffffffff16565b95505050505050611517565b600282019150506112ca565b505050505b919050565b6060610120604051908101604052806101008152602001613ea761010091399050919050565b6060600460009054906101000a900473ffffffffffffffffffffffffffffffffffffffff1673ffffffffffffffffffffffffffffffffffffffff1663497fc8f4836040518263ffffffff1660e01b81526004018080602001828103825283818151815260200191508051906020019080838360005b838110156115d25780820151818401526020810190506115b7565b50505050905090810190601f1680156115ff5780820380516001836020036101000a031916815260200191505b509250505060006040518083038186803b15801561161c57600080fd5b505afa158015611630573d6000803e3d6000fd5b505050506040513d6000823e3d601f19601f82011682018060405250602081101561165a57600080fd5b81019080805164010000000081111561167257600080fd5b8281019050602081018481111561168857600080fd5b81518560018202830111640100000000821117156116a557600080fd5b50509291905050509050600081511415611727576040517f08c379a000000000000000000000000000000000000000000000000000000000815260040180806020018281038252600d8152602001807f4b6579206e6f7420666f756e640000000000000000000000000000000000000081525060200191505060405180910390fd5b919050565b60006117d96002866040518082805190602001908083835b6020831015156117695780518252602082019150602081019050602083039250611744565b6001836020036101000a038019825116818451168082178552505050505050905001915050602060405180830381855afa1580156117ab573d6000803e3d6000fd5b5050506040513d60208110156117c057600080fd5b8101908080519060200190929190505050858585612e9a565b9050949350505050565b606080606060006060600061180260288861215f90919063ffffffff16565b925092509250600083141515611880576040517f08c379a00000000000000000000000000000000000000000000000000000000081526004018080602001828103825260118152602001807f4a534f4e207061727365206661696c656400000000000000000000000000000081525060200191505060405180910390fd5b6001600481111561188d57fe5b82600081518110151561189c57fe5b906020019060200201516000015160048111156118b557fe5b14151561192a576040517f08c379a000000000000000000000000000000000000000000000000000000000815260040180806020018281038252601c8152602001807f4578706563746564204a575420746f20626520616e206f626a6563740000000081525060200191505060405180910390fd5b6000600190505b81811015611e1a576003600481111561194657fe5b838281518110151561195457fe5b9060200190602002015160000151600481111561196d57fe5b1415156119c5576040517f08c379a0000000000000000000000000000000000000000000000000000000008152600401808060200182810382526028815260200180613e7f6028913960400191505060405180910390fd5b6060611a1284838151811015156119d857fe5b906020019060200201516020015185848151811015156119f457fe5b90602001906020020151606001518b612dd89092919063ffffffff16565b90506000611a5e6040805190810160405280600381526020017f737562000000000000000000000000000000000000000000000000000000000081525083611e2590919063ffffffff16565b1415611b685760036004811115611a7157fe5b8460018401815181101515611a8257fe5b90602001906020020151600001516004811115611a9b57fe5b141515611b10576040517f08c379a000000000000000000000000000000000000000000000000000000000815260040180806020018281038252601b8152602001807f45787065637465642073756220746f206265206120737472696e67000000000081525060200191505060405180910390fd5b611b618460018401815181101515611b2457fe5b90602001906020020151602001518560018501815181101515611b4357fe5b90602001906020020151606001518b612dd89092919063ffffffff16565b9550611e0e565b6000611bb26040805190810160405280600381526020017f617564000000000000000000000000000000000000000000000000000000000081525083611e2590919063ffffffff16565b1415611cbc5760036004811115611bc557fe5b8460018401815181101515611bd657fe5b90602001906020020151600001516004811115611bef57fe5b141515611c64576040517f08c379a000000000000000000000000000000000000000000000000000000000815260040180806020018281038252601b8152602001807f45787065637465642061756420746f206265206120737472696e67000000000081525060200191505060405180910390fd5b611cb58460018401815181101515611c7857fe5b90602001906020020151602001518560018501815181101515611c9757fe5b90602001906020020151606001518b612dd89092919063ffffffff16565b9750611e0d565b6000611d066040805190810160405280600581526020017f6e6f6e636500000000000000000000000000000000000000000000000000000081525083611e2590919063ffffffff16565b1415611e0c5760036004811115611d1957fe5b8460018401815181101515611d2a57fe5b90602001906020020151600001516004811115611d4357fe5b141515611db8576040517f08c379a000000000000000000000000000000000000000000000000000000000815260040180806020018281038252601d8152602001807f4578706563746564206e6f6e636520746f206265206120737472696e6700000081525060200191505060405180910390fd5b611e098460018401815181101515611dcc57fe5b90602001906020020151602001518560018501815181101515611deb57fe5b90602001906020020151606001518b612dd89092919063ffffffff16565b96505b5b5b60028201915050611931565b505050509193909250565b6000606083905060608390506000825190508082511015611e4557815190505b60008090505b81811015611f95578281815181101515611e6157fe5b90602001015160f81c60f81b7effffffffffffffffffffffffffffffffffffffffffffffffffffffffffffff19168482815181101515611e9d57fe5b90602001015160f81c60f81b7effffffffffffffffffffffffffffffffffffffffffffffffffffffffffffff19161015611efd577fffffffffffffffffffffffffffffffffffffffffffffffffffffffffffffffff945050505050611fe9565b8281815181101515611f0b57fe5b90602001015160f81c60f81b7effffffffffffffffffffffffffffffffffffffffffffffffffffffffffffff19168482815181101515611f4757fe5b90602001015160f81c60f81b7effffffffffffffffffffffffffffffffffffffffffffffffffffffffffffff19161115611f88576001945050505050611fe9565b8080600101915050611e4b565b50815183511015611fcb577fffffffffffffffffffffffffffffffffffffffffffffffffffffffffffffffff9350505050611fe9565b815183511115611fe15760019350505050611fe9565b600093505050505b92915050565b600080600080600085600888901b60108a901b171790506000603f601283901c1690506000603f600c84901c1690506000603f600685901c1690506000603f8516905060606040519081016040528060408152602001613e3f604091398481518110151561205957fe5b90602001015160f81c60f81b985060606040519081016040528060408152602001613e3f604091398381518110151561208e57fe5b90602001015160f81c60f81b975060606040519081016040528060408152602001613e3f60409139828151811015156120c357fe5b90602001015160f81c60f81b965060606040519081016040528060408152602001613e3f60409139818151811015156120f857fe5b90602001015160f81c60f81b9550505050505093509350935093565b5b60208110151561213a5781518352602083019250602082019150602081039050612115565b60006001826020036101000a0390508019835116818551168181178652505050505050565b60006060600060608590506000612174613d66565b61217d87613282565b8096508192505050600080826020015190506000612199613d88565b5b865185600001511015612dbb5760008786600001518151811015156121bb57fe5b90602001015160f81c60f81b9050607b60f81b817effffffffffffffffffffffffffffffffffffffffffffffffffffffffffffff191614806122225750605b60f81b817effffffffffffffffffffffffffffffffffffffffffffffffffffffffffffff1916145b15612350578380600101945050612239868b613320565b80935081985050508615156122635760038a60008090509a509a509a505050505050505050612dd1565b7fffffffffffffffffffffffffffffffffffffffffffffffffffffffffffffffff86604001511415156122c2578986604001518151811015156122a257fe5b9060200190602002015160a001805180919060010160ff1660ff16815250505b607b60f81b817effffffffffffffffffffffffffffffffffffffffffffffffffffffffffffff1916146122f65760026122f9565b60015b8260000190600481111561230957fe5b9081600481111561231657fe5b8152505085600001518260200181815250506001826040019015159081151581525050600186602001510386604001818152505050612da6565b607d60f81b817effffffffffffffffffffffffffffffffffffffffffffffffffffffffffffff191614806123a95750605d60f81b817effffffffffffffffffffffffffffffffffffffffffffffffffffffffffffff1916145b156125e4576000607d60f81b827effffffffffffffffffffffffffffffffffffffffffffffffffffffffffffff1916146123e45760026123e7565b60015b90506000809050600188602001510394505b600085101515612506578b8581518110151561241157fe5b9060200190602002015193508360400151801561243057508360800151155b156124f85781600481111561244157fe5b8460000151600481111561245157fe5b1415156124755760018c60008090509c509c509c5050505050505050505050612dd1565b7fffffffffffffffffffffffffffffffffffffffffffffffffffffffffffffffff88604001818152505060018860000151018c868151811015156124b557fe5b90602001906020020151606001818152505060018c868151811015156124d757fe5b90602001906020020151608001901515908115158152505060019050612506565b8480600190039550506123f9565b80151561252a5760018c60008090509c509c509c5050505050505050505050612dd1565b5b6000851115612583578b8581518110151561254257fe5b9060200190602002015193508360400151801561256157508360800151155b156125755784886040018181525050612583565b84806001900395505061252b565b60008514156125dc578b8581518110151561259a57fe5b906020019060200201519350836040015180156125b957508360800151155b156125db57846fffffffffffffffffffffffffffffffff168860400181815250505b5b505050612da6565b7f2200000000000000000000000000000000000000000000000000000000000000817effffffffffffffffffffffffffffffffffffffffffffffffffffffffffffff191614156126cc57612639868b8a6133f2565b945060008514151561265f57848a60008090509a509a509a505050505050505050612dd1565b83806001019450507fffffffffffffffffffffffffffffffffffffffffffffffffffffffffffffffff86604001511415156126c6578986604001518151811015156126a657fe5b9060200190602002015160a001805180919060010160ff1660ff16815250505b50612da6565b7f2000000000000000000000000000000000000000000000000000000000000000817effffffffffffffffffffffffffffffffffffffffffffffffffffffffffffff191614806127415750601160f81b817effffffffffffffffffffffffffffffffffffffffffffffffffffffffffffff1916145b806127715750601260f81b817effffffffffffffffffffffffffffffffffffffffffffffffffffffffffffff1916145b806127a15750601460f81b817effffffffffffffffffffffffffffffffffffffffffffffffffffffffffffff1916145b156127ac5750612da6565b7f3a00000000000000000000000000000000000000000000000000000000000000817effffffffffffffffffffffffffffffffffffffffffffffffffffffffffffff1916141561280d57600186602001510386604001818152505050612da6565b7f2c00000000000000000000000000000000000000000000000000000000000000817effffffffffffffffffffffffffffffffffffffffffffffffffffffffffffff191614156129fe577fffffffffffffffffffffffffffffffffffffffffffffffffffffffffffffffff8660400151141580156128c157506002600481111561289357fe5b8a87604001518151811015156128a557fe5b906020019060200201516000015160048111156128be57fe5b14155b80156129035750600160048111156128d557fe5b8a87604001518151811015156128e757fe5b9060200190602002015160000151600481111561290057fe5b14155b156129f857600186602001510392505b6000831015156129f7576002600481111561292a57fe5b8a8481518110151561293857fe5b9060200190602002015160000151600481111561295157fe5b148061298e57506001600481111561296557fe5b8a8481518110151561297357fe5b9060200190602002015160000151600481111561298c57fe5b145b156129e95789838151811015156129a157fe5b906020019060200201516040015180156129d4575089838151811015156129c457fe5b9060200190602002015160800151155b156129e857828660400181815250506129f7565b5b828060019003935050612913565b5b50612da6565b7f3000000000000000000000000000000000000000000000000000000000000000817effffffffffffffffffffffffffffffffffffffffffffffffffffffffffffff191610158015612a9257507f3900000000000000000000000000000000000000000000000000000000000000817effffffffffffffffffffffffffffffffffffffffffffffffffffffffffffff191611155b80612ade57507f2d00000000000000000000000000000000000000000000000000000000000000817effffffffffffffffffffffffffffffffffffffffffffffffffffffffffffff1916145b80612b2a57507f6600000000000000000000000000000000000000000000000000000000000000817effffffffffffffffffffffffffffffffffffffffffffffffffffffffffffff1916145b80612b7657507f7400000000000000000000000000000000000000000000000000000000000000817effffffffffffffffffffffffffffffffffffffffffffffffffffffffffffff1916145b80612bc257507f6e00000000000000000000000000000000000000000000000000000000000000817effffffffffffffffffffffffffffffffffffffffffffffffffffffffffffff1916145b15612d28577fffffffffffffffffffffffffffffffffffffffffffffffffffffffffffffffff8660400151141515612c8a57898660400151815181101515612c0657fe5b90602001906020020151915060016004811115612c1f57fe5b82600001516004811115612c2f57fe5b1480612c69575060036004811115612c4357fe5b82600001516004811115612c5357fe5b148015612c68575060008260a0015160ff1614155b5b15612c895760018a60008090509a509a509a505050505050505050612dd1565b5b612c95868b8a6138a6565b9450600085141515612cbb57848a60008090509a509a509a505050505050505050612dd1565b83806001019450507fffffffffffffffffffffffffffffffffffffffffffffffffffffffffffffffff8660400151141515612d2257898660400151815181101515612d0257fe5b9060200190602002015160a001805180919060010160ff1660ff16815250505b50612da6565b602060f81b817effffffffffffffffffffffffffffffffffffffffffffffffffffffffffffff191610158015612d845750607e60f81b817effffffffffffffffffffffffffffffffffffffffffffffffffffffffffffff191611155b15612da45760018a60008090509a509a509a505050505050505050612dd1565b505b8460000180518091906001018152505061219a565b6000898660200151995099509950505050505050505b9250925092565b60608084905060608484036040519080825280601f01601f191660200182016040528015612e155781602001600182028038833980820191505090505b50905060008590505b84811015612e8d578281815181101515612e3457fe5b90602001015160f81c60f81b82878303815181101515612e5057fe5b9060200101907effffffffffffffffffffffffffffffffffffffffffffffffffffffffffffff1916908160001a9053508080600101915050612e1e565b5080925050509392505050565b6000612ea4613dd1565b61026060405190810160405280603060ff168152602001603160ff168152602001603060ff168152602001600d60ff168152602001600660ff168152602001600960ff168152602001606060ff168152602001608660ff168152602001604860ff168152602001600160ff168152602001606560ff168152602001600360ff168152602001600460ff168152602001600260ff168152602001600160ff168152602001600560ff168152602001600060ff168152602001600460ff168152602001602060ff168152509050600b602060ff1660130101835110151515612f8957600080fd5b60006060612f98878787613ba2565b90506000815190506000865190506060816040519080825280601f01601f191660200182016040528015612fdb5781602001600182028038833980820191505090505b5090508160208201846020870160056107d05a03fa506000602060136003850303039050600060f81b82600081518110151561301357fe5b90602001015160f81c60f81b7effffffffffffffffffffffffffffffffffffffffffffffffffffffffffffff191614158061306f5750600182600181518110151561305a57fe5b90602001015160f81c60f81b60f81c60ff1614155b1561308457600197505050505050505061327a565b600295505b806002018610156130f95760ff60f81b82878151811015156130a757fe5b90602001015160f81c60f81b7effffffffffffffffffffffffffffffffffffffffffffffffffffffffffffff19161415156130ec57600297505050505050505061327a565b8580600101965050613089565b600060f81b828260020181518110151561310f57fe5b90602001015160f81c60f81b7effffffffffffffffffffffffffffffffffffffffffffffffffffffffffffff191614151561315457600397505050505050505061327a565b600095505b60138610156131c157868660138110151561317057fe5b602002015160ff168287836003010181518110151561318b57fe5b90602001015160f81c60f81b60f81c60ff161415156131b457600497505050505050505061327a565b8580600101965050613159565b600095505b602060ff1686101561326e578b866020811015156131e057fe5b1a60f81b7effffffffffffffffffffffffffffffffffffffffffffffffffffffffffffff19168287601384600301010181518110151561321c57fe5b90602001015160f81c60f81b7effffffffffffffffffffffffffffffffffffffffffffffffffffffffffffff191614151561326157600597505050505050505061327a565b85806001019650506131c6565b60009750505050505050505b949350505050565b61328a613d66565b6060613294613d66565b60606040519081016040528060008152602001600081526020017fffffffffffffffffffffffffffffffffffffffffffffffffffffffffffffffff815250905060608460405190808252806020026020018201604052801561331057816020015b6132fd613df5565b8152602001906001900390816132f55790505b5090508181935093505050915091565b600061332a613d88565b8251846020015110151561336257600083600185510381518110151561334c57fe5b90602001906020020151809050915091506133eb565b61336a613d88565b60c0604051908101604052806000600481111561338357fe5b81526020016000815260200160001515815260200160008152602001600015158152602001600060ff168152509050808486602001518151811015156133c557fe5b906020019060200201819052508460200180518091906001018152505060018192509250505b9250929050565b600080846000015190506000613406613d88565b866000018051809190600101815250505b84518760000151101561388d57600085886000015181518110151561343857fe5b90602001015160f81c60f81b90507f2200000000000000000000000000000000000000000000000000000000000000817effffffffffffffffffffffffffffffffffffffffffffffffffffffffffffff191614156134e15761349a8888613320565b80935081945050508215156134c05783886000018181525050600394505050505061389f565b6134d4826003600187018b60000151613c76565b600094505050505061389f565b605c8160f81c60ff161480156134fe575085516001896000015101105b1561387657876000018051809190600101815250507f220000000000000000000000000000000000000000000000000000000000000086896000015181518110151561354657fe5b90602001015160f81c60f81b7effffffffffffffffffffffffffffffffffffffffffffffffffffffffffffff191614806135de57507f2f000000000000000000000000000000000000000000000000000000000000008689600001518151811015156135ae57fe5b90602001015160f81c60f81b7effffffffffffffffffffffffffffffffffffffffffffffffffffffffffffff1916145b8061364757507f5c0000000000000000000000000000000000000000000000000000000000000086896000015181518110151561361757fe5b90602001015160f81c60f81b7effffffffffffffffffffffffffffffffffffffffffffffffffffffffffffff1916145b806136b057507f660000000000000000000000000000000000000000000000000000000000000086896000015181518110151561368057fe5b90602001015160f81c60f81b7effffffffffffffffffffffffffffffffffffffffffffffffffffffffffffff1916145b8061371957507f72000000000000000000000000000000000000000000000000000000000000008689600001518151811015156136e957fe5b90602001015160f81c60f81b7effffffffffffffffffffffffffffffffffffffffffffffffffffffffffffff1916145b8061378257507f6e0000000000000000000000000000000000000000000000000000000000000086896000015181518110151561375257fe5b90602001015160f81c60f81b7effffffffffffffffffffffffffffffffffffffffffffffffffffffffffffff1916145b806137eb57507f62000000000000000000000000000000000000000000000000000000000000008689600001518151811015156137bb57fe5b90602001015160f81c60f81b7effffffffffffffffffffffffffffffffffffffffffffffffffffffffffffff1916145b8061385457507f740000000000000000000000000000000000000000000000000000000000000086896000015181518110151561382457fe5b90602001015160f81c60f81b7effffffffffffffffffffffffffffffffffffffffffffffffffffffffffffff1916145b1561385f5750613878565b83886000018181525050600194505050505061389f565b505b86600001805180919060010181525050613417565b82876000018181525050600293505050505b9392505050565b600080600090506000856000015190506000806138c1613d88565b5b865189600001511015613b1f578689600001518151811015156138e157fe5b90602001015160f81c60f81b92507f2000000000000000000000000000000000000000000000000000000000000000837effffffffffffffffffffffffffffffffffffffffffffffffffffffffffffff1916148061398057507f0900000000000000000000000000000000000000000000000000000000000000837effffffffffffffffffffffffffffffffffffffffffffffffffffffffffffff1916145b806139cc57507f0a00000000000000000000000000000000000000000000000000000000000000837effffffffffffffffffffffffffffffffffffffffffffffffffffffffffffff1916145b80613a1857507f0d00000000000000000000000000000000000000000000000000000000000000837effffffffffffffffffffffffffffffffffffffffffffffffffffffffffffff1916145b80613a6457507f2c00000000000000000000000000000000000000000000000000000000000000837effffffffffffffffffffffffffffffffffffffffffffffffffffffffffffff1916145b80613a945750607d60f81b837effffffffffffffffffffffffffffffffffffffffffffffffffffffffffffff1916145b80613ac45750605d60f81b837effffffffffffffffffffffffffffffffffffffffffffffffffffffffffffff1916145b15613ad25760019450613b1f565b60208360f81c60ff161080613aed5750607f8360f81c60ff16115b15613b0a5783896000018181525050600195505050505050613b9b565b886000018051809190600101815250506138c2565b841515613b3e5783896000018181525050600295505050505050613b9b565b613b488989613320565b8092508193505050811515613b6f5783896000018181525050600395505050505050613b9b565b613b80816004868c60000151613c76565b88600001805180919060019003815250506000955050505050505b9392505050565b60606000825184518651606001010190506000855190506000855190506000855190506000806000806060886040519080825280601f01601f191660200182016040528015613c005781602001600182028038833980820191505090505b50905060208d01945060208c01935060208b019250876020820152866040820152856060820152602081019150613c3c60608301868f51613ce7565b613c4e8d516060840101858e51613ce7565b613c638c518e51606085010101848d51613ce7565b8099505050505050505050509392505050565b8284600001906004811115613c8757fe5b90816004811115613c9457fe5b8152505081846020018181525050600184604001901515908115158152505080846060018181525050600184608001901515908115158152505060008460a0019060ff16908160ff168152505050505050565b5b602081101515613d0d5781518352602083019250602082019150602081039050613ce8565b60006001826020036101000a0390508019835116818551168181178652505050505050565b604080519081016040528060008152602001600081525090565b604080519081016040528060008152602001600081525090565b6060604051908101604052806000815260200160008152602001600081525090565b60c06040519081016040528060006004811115613da157fe5b81526020016000815260200160001515815260200160008152602001600015158152602001600060ff1681525090565b61026060405190810160405280601390602082028038833980820191505090505090565b60c06040519081016040528060006004811115613e0e57fe5b81526020016000815260200160001515815260200160008152602001600015158152602001600060ff168152509056fe4142434445464748494a4b4c4d4e4f505152535455565758595a6162636465666768696a6b6c6d6e6f707172737475767778797a303132333435363738392d5f4578706563746564204a575420746f20636f6e7461696e206f6e6c7920737472696e67206b65797300000000000000000000000000000000000000000000000000000000000000000000000000000000000000000000000000000000000000000000000000000000000000000000000000000000000000000000000000000000000000000000000000000000000000000000000000000000000000000000000000000000000000000000000000000000000000000000000000000000000000000000000000000000000000000000000000000000000000000000000000000000000000000000000000000000000000000000000000000000000000000000000000000000000000000000000000000000000000000000000000000000000000000000000000010001a165627a7a723058208154cb65869fa8af66f090b1b5606d7f81013c7244ba94e9b34c9ae7cfcdbf640029",
  "source": "pragma solidity ^0.5.0;\n\nimport \"./Base64.sol\";\nimport \"./JsmnSolLib.sol\";\nimport \"./JWT.sol\";\nimport \"./SolRsaVerify.sol\";\nimport \"./Strings.sol\";\nimport \"./JWKS.sol\";\n\ncontract Identity {\n\n  using Base64 for string;\n  using StringUtils for *;\n  using SolRsaVerify for *;\n  using JsmnSolLib for string;\n\n  mapping (address => bool) public accounts;\n  address[] private accountsList;\n  string public audience;\n  string public subject;\n  JWKS public keys;\n  \n  constructor(string memory sub, string memory aud, JWKS jwks) public payable {\n    accounts[msg.sender] = true;\n    accountsList.push(msg.sender);\n    audience = aud;\n    subject = sub;\n    keys = jwks;\n  }\n\n  function recover(string memory headerJson, string memory payloadJson, bytes memory signature) public {\n    string memory headerBase64 = headerJson.encode();\n    string memory payloadBase64 = payloadJson.encode();\n    StringUtils.slice[] memory slices = new StringUtils.slice[](2);\n    slices[0] = headerBase64.toSlice();\n    slices[1] = payloadBase64.toSlice();\n    string memory message = \".\".toSlice().join(slices);\n    string memory kid = parseHeader(headerJson);\n    bytes memory exponent = getRsaExponent(kid);\n    bytes memory modulus = getRsaModulus(kid);\n    require(message.pkcs1Sha256VerifyStr(signature, exponent, modulus) == 0, \"RSA signature check failed\");\n\n    (string memory aud, string memory nonce, string memory sub) = parseToken(payloadJson);\n    \n    require(aud.strCompare(audience) == 0 || true, \"Audience does not match\");\n    require(sub.strCompare(subject) == 0, \"Subject does not match\");\n\n    string memory senderBase64 = string(abi.encodePacked(msg.sender)).encode();\n    require(senderBase64.strCompare(nonce) == 0, \"Sender does not match nonce\");\n\n    if (!accounts[msg.sender]) {\n      accounts[msg.sender] = true;\n      accountsList.push(msg.sender);\n    }\n  }\n\n  function parseHeader(string memory json) internal pure returns (string memory kid) {\n    (uint exitCode, JsmnSolLib.Token[] memory tokens, uint ntokens) = json.parse(20);\n    require(exitCode == 0, \"JSON parse failed\");\n    \n    require(tokens[0].jsmnType == JsmnSolLib.JsmnType.OBJECT, \"Expected JWT to be an object\");\n    uint i = 1;\n    while (i < ntokens) {\n      require(tokens[i].jsmnType == JsmnSolLib.JsmnType.STRING, \"Expected JWT to contain only string keys\");\n      string memory key = json.getBytes(tokens[i].start, tokens[i].end);\n      if (key.strCompare(\"kid\") == 0) {\n        require(tokens[i+1].jsmnType == JsmnSolLib.JsmnType.STRING, \"Expected kid to be a string\");\n        return json.getBytes(tokens[i+1].start, tokens[i+1].end);\n      }\n      i += 2;\n    }\n  }\n\n  function parseToken(string memory json) internal pure returns (string memory aud, string memory nonce, string memory sub) {\n    (uint exitCode, JsmnSolLib.Token[] memory tokens, uint ntokens) = json.parse(40);\n    require(exitCode == 0, \"JSON parse failed\");\n    \n    require(tokens[0].jsmnType == JsmnSolLib.JsmnType.OBJECT, \"Expected JWT to be an object\");\n    uint i = 1;\n    while (i < ntokens) {\n      require(tokens[i].jsmnType == JsmnSolLib.JsmnType.STRING, \"Expected JWT to contain only string keys\");\n      string memory key = json.getBytes(tokens[i].start, tokens[i].end);\n      if (key.strCompare(\"sub\") == 0) {\n        require(tokens[i+1].jsmnType == JsmnSolLib.JsmnType.STRING, \"Expected sub to be a string\");\n        sub = json.getBytes(tokens[i+1].start, tokens[i+1].end);\n      } else if (key.strCompare(\"aud\") == 0) {\n        require(tokens[i+1].jsmnType == JsmnSolLib.JsmnType.STRING, \"Expected aud to be a string\");\n        aud = json.getBytes(tokens[i+1].start, tokens[i+1].end);\n      } else if (key.strCompare(\"nonce\") == 0) {\n        require(tokens[i+1].jsmnType == JsmnSolLib.JsmnType.STRING, \"Expected nonce to be a string\");\n        nonce = json.getBytes(tokens[i+1].start, tokens[i+1].end);\n      }\n      i += 2;\n    }\n  }\n\n  function getRsaModulus(string memory kid) internal view returns (bytes memory modulus) {\n    modulus = keys.getModulus(kid);\n    if (modulus.length == 0) revert(\"Key not found\");\n  }\n\n  function getRsaExponent(string memory) internal pure returns (bytes memory) {\n    return hex\"00000000000000000000000000000000000000000000000000000000000000000000000000000000000000000000000000000000000000000000000000000000000000000000000000000000000000000000000000000000000000000000000000000000000000000000000000000000000000000000000000000000000000000000000000000000000000000000000000000000000000000000000000000000000000000000000000000000000000000000000000000000000000000000000000000000000000000000000000000000000000000000000000000000000000000000000000000000000000000000000000000000000000000000000000010001\";\n  }\n\n  function getAccounts() public view returns (address[] memory) {\n    return accountsList;\n  }\n}",
  "sourcePath": "/Users/calebsirak/solidity-jwt/contracts/Identity.sol",
  "compiler": {
    "name": "solc",
    "version": "0.5.4+commit.9549d8ff.Emscripten.clang"
  },
  "schemaVersion": "3.4.10",
  "updatedAt": "2023-02-02T20:07:58.339Z",
  "devdoc": {
    "methods": {}
  },
  "userdoc": {
    "methods": {}
  }
}