{
  "contractName": "JWKS",
  "abi": [
    {
      "inputs": [],
      "stateMutability": "nonpayable",
      "type": "constructor"
    },
    {
      "inputs": [
        {
          "internalType": "string",
          "name": "kid",
          "type": "string"
        },
        {
          "internalType": "bytes",
          "name": "modulus",
          "type": "bytes"
        }
      ],
      "name": "addKey",
      "outputs": [],
      "stateMutability": "nonpayable",
      "type": "function"
    },
    {
      "inputs": [
        {
          "internalType": "string",
          "name": "kid",
          "type": "string"
        }
      ],
      "name": "getModulus",
      "outputs": [
        {
          "internalType": "bytes",
          "name": "",
          "type": "bytes"
        }
      ],
      "stateMutability": "view",
      "type": "function"
    }
  ],
  "bytecode": "0x608060405234801561001057600080fd5b50336000806101000a81548173ffffffffffffffffffffffffffffffffffffffff021916908373ffffffffffffffffffffffffffffffffffffffff16021790555061066c806100606000396000f3fe608060405234801561001057600080fd5b50600436106100365760003560e01c8063497fc8f41461003b578063c4436bb51461006b575b600080fd5b6100556004803603810190610050919061036b565b610087565b604051610062919061043c565b60405180910390f35b610085600480360381019061008091906104ff565b610137565b005b606060018260405161009991906105be565b908152602001604051809103902080546100b290610604565b80601f01602080910402602001604051908101604052809291908181526020018280546100de90610604565b801561012b5780601f106101005761010080835404028352916020019161012b565b820191906000526020600020905b81548152906001019060200180831161010e57829003601f168201915b50505050509050919050565b8060018360405161014891906105be565b9081526020016040518091039020908051906020019061016992919061016e565b505050565b82805461017a90610604565b90600052602060002090601f01602090048101928261019c57600085556101e3565b82601f106101b557805160ff19168380011785556101e3565b828001600101855582156101e3579182015b828111156101e25782518255916020019190600101906101c7565b5b5090506101f091906101f4565b5090565b5b8082111561020d5760008160009055506001016101f5565b5090565b6000604051905090565b600080fd5b600080fd5b600080fd5b600080fd5b6000601f19601f8301169050919050565b7f4e487b7100000000000000000000000000000000000000000000000000000000600052604160045260246000fd5b6102788261022f565b810181811067ffffffffffffffff8211171561029757610296610240565b5b80604052505050565b60006102aa610211565b90506102b6828261026f565b919050565b600067ffffffffffffffff8211156102d6576102d5610240565b5b6102df8261022f565b9050602081019050919050565b82818337600083830152505050565b600061030e610309846102bb565b6102a0565b90508281526020810184848401111561032a5761032961022a565b5b6103358482856102ec565b509392505050565b600082601f83011261035257610351610225565b5b81356103628482602086016102fb565b91505092915050565b6000602082840312156103815761038061021b565b5b600082013567ffffffffffffffff81111561039f5761039e610220565b5b6103ab8482850161033d565b91505092915050565b600081519050919050565b600082825260208201905092915050565b60005b838110156103ee5780820151818401526020810190506103d3565b838111156103fd576000848401525b50505050565b600061040e826103b4565b61041881856103bf565b93506104288185602086016103d0565b6104318161022f565b840191505092915050565b600060208201905081810360008301526104568184610403565b905092915050565b600067ffffffffffffffff82111561047957610478610240565b5b6104828261022f565b9050602081019050919050565b60006104a261049d8461045e565b6102a0565b9050828152602081018484840111156104be576104bd61022a565b5b6104c98482856102ec565b509392505050565b600082601f8301126104e6576104e5610225565b5b81356104f684826020860161048f565b91505092915050565b600080604083850312156105165761051561021b565b5b600083013567ffffffffffffffff81111561053457610533610220565b5b6105408582860161033d565b925050602083013567ffffffffffffffff81111561056157610560610220565b5b61056d858286016104d1565b9150509250929050565b600081519050919050565b600081905092915050565b600061059882610577565b6105a28185610582565b93506105b28185602086016103d0565b80840191505092915050565b60006105ca828461058d565b915081905092915050565b7f4e487b7100000000000000000000000000000000000000000000000000000000600052602260045260246000fd5b6000600282049050600182168061061c57607f821691505b602082108114156106305761062f6105d5565b5b5091905056fea2646970667358221220b30be2c401a2e354bf005b133a69432f2e08ea905b75e136f1d26e670ad5ffec64736f6c634300080a0033",
  "immutableReferences": {},
  "source": "// SPDX-License-Identifier: GPL-3.0-only\npragma solidity ^0.8.0;\n\ncontract JWKS {\n  address admin;\n  \n  mapping(string => bytes) keys;\n\n  constructor() public {\n    admin = msg.sender;\n  }\n\n  function addKey(string memory kid, bytes memory modulus) public {\n    keys[kid] = modulus;\n  }\n\n  function getModulus(string memory kid) public view returns (bytes memory) {\n    return keys[kid];\n  }\n}",
  "sourcePath": "/Users/calebsirak/ethdenver/solidity-jwt/contracts/JWKS.sol",
  "compiler": {
    "name": "solc",
    "version": "0.8.10+commit.fc410830.Emscripten.clang"
  },
  "schemaVersion": "3.4.10",
  "updatedAt": "2023-03-05T13:11:52.171Z",
  "devdoc": {
    "kind": "dev",
    "methods": {},
    "version": 1
  },
  "userdoc": {
    "kind": "user",
    "methods": {},
    "version": 1
  }
}