{
  "contractName": "JWT",
  "abi": [
    {
      "inputs": [
        {
          "internalType": "string",
          "name": "json",
          "type": "string"
        }
      ],
      "name": "getSub",
      "outputs": [
        {
          "internalType": "string",
          "name": "",
          "type": "string"
        }
      ],
      "stateMutability": "pure",
      "type": "function"
    }
  ],
  "bytecode": "0x608060405234801561001057600080fd5b5061250a806100206000396000f3fe608060405234801561001057600080fd5b506004361061002b5760003560e01c806394b4dca114610030575b600080fd5b61004a60048036038101906100459190611fd4565b610060565b60405161005791906120a5565b60405180910390f35b6060600080600061007b6014866103de90919063ffffffff16565b925092509250600083146100c4576040517f08c379a00000000000000000000000000000000000000000000000000000000081526004016100bb90612113565b60405180910390fd5b600160048111156100d8576100d7612133565b5b826000815181106100ec576100eb612162565b5b602002602001015160000151600481111561010a57610109612133565b5b1461014a576040517f08c379a0000000000000000000000000000000000000000000000000000000008152600401610141906121dd565b60405180910390fd5b6000600190505b8181101561039e576003600481111561016d5761016c612133565b5b8382815181106101805761017f612162565b5b602002602001015160000151600481111561019e5761019d612133565b5b146101de576040517f08c379a00000000000000000000000000000000000000000000000000000000081526004016101d59061226f565b60405180910390fd5b60006102318483815181106101f6576101f5612162565b5b60200260200101516020015185848151811061021557610214612162565b5b602002602001015160600151896111209092919063ffffffff16565b9050600061027d6040518060400160405280600381526020017f73756200000000000000000000000000000000000000000000000000000000008152508361121c90919063ffffffff16565b1415610389576003600481111561029757610296612133565b5b846001846102a591906122c8565b815181106102b6576102b5612162565b5b60200260200101516000015160048111156102d4576102d3612133565b5b14610314576040517f08c379a000000000000000000000000000000000000000000000000000000000815260040161030b9061236a565b60405180910390fd5b61037d8460018461032591906122c8565b8151811061033657610335612162565b5b6020026020010151602001518560018561035091906122c8565b8151811061036157610360612162565b5b602002602001015160600151896111209092919063ffffffff16565b955050505050506103d9565b60028261039691906122c8565b915050610151565b6040517f08c379a00000000000000000000000000000000000000000000000000000000081526004016103d0906123d6565b60405180910390fd5b919050565b6000606060008085905060006103f2611e0a565b6103fb876113f8565b8096508192505050600080826020015190506000610417611e2b565b5b8651856000015110156111035760008786600001518151811061043e5761043d612162565b5b602001015160f81c60f81b9050607b60f81b817effffffffffffffffffffffffffffffffffffffffffffffffffffffffffffff191614806104a45750605b60f81b817effffffffffffffffffffffffffffffffffffffffffffffffffffffffffffff1916145b156105f15783806104b4906123f6565b9450506104c1868b6114a8565b8093508198505050866104e65760038a60009a509a509a505050505050505050611119565b7fffffffffffffffffffffffffffffffffffffffffffffffffffffffffffffffff86604001511461054c578986604001518151811061052857610527612162565b5b602002602001015160a00180518091906105419061244c565b60ff1660ff16815250505b607b60f81b817effffffffffffffffffffffffffffffffffffffffffffffffffffffffffffff191614610580576002610583565b60015b8260000190600481111561059a57610599612133565b5b908160048111156105ae576105ad612133565b5b8152505085600001518260200181815250506001826040019015159081151581525050600186602001516105e29190612476565b866040018181525050506110e8565b607d60f81b817effffffffffffffffffffffffffffffffffffffffffffffffffffffffffffff1916148061064a5750605d60f81b817effffffffffffffffffffffffffffffffffffffffffffffffffffffffffffff1916145b156108a0576000607d60f81b827effffffffffffffffffffffffffffffffffffffffffffffffffffffffffffff191614610685576002610688565b60015b905060006001886020015161069d9190612476565b94505b600085106107cb578b85815181106106bb576106ba612162565b5b60200260200101519350836040015180156106d857508360800151155b156107b8578160048111156106f0576106ef612133565b5b8460000151600481111561070757610706612133565b5b146107265760018c60009c509c509c5050505050505050505050611119565b7fffffffffffffffffffffffffffffffffffffffffffffffffffffffffffffffff8860400181815250506001886000015161076191906122c8565b8c868151811061077457610773612162565b5b6020026020010151606001818152505060018c868151811061079957610798612162565b5b60200260200101516080019015159081151581525050600190506107cb565b84806107c3906124aa565b9550506106a0565b806107ea5760018c60009c509c509c5050505050505050505050611119565b5b600085111561084b578b858151811061080757610806612162565b5b602002602001015193508360400151801561082457508360800151155b15610838578488604001818152505061084b565b8480610843906124aa565b9550506107eb565b6000851415610898578b858151811061086757610866612162565b5b602002602001015193508360400151801561088457508360800151155b156108975784600f0b8860400181815250505b5b5050506110e8565b7f2200000000000000000000000000000000000000000000000000000000000000817effffffffffffffffffffffffffffffffffffffffffffffffffffffffffffff19161415610990576108f5868b8a61158a565b94506000851461091657848a60009a509a509a505050505050505050611119565b8380610921906123f6565b9450507fffffffffffffffffffffffffffffffffffffffffffffffffffffffffffffffff86604001511461098a578986604001518151811061096657610965612162565b5b602002602001015160a001805180919061097f9061244c565b60ff1660ff16815250505b506110e8565b7f2000000000000000000000000000000000000000000000000000000000000000817effffffffffffffffffffffffffffffffffffffffffffffffffffffffffffff19161480610a055750601160f81b817effffffffffffffffffffffffffffffffffffffffffffffffffffffffffffff1916145b80610a355750601260f81b817effffffffffffffffffffffffffffffffffffffffffffffffffffffffffffff1916145b80610a655750601460f81b817effffffffffffffffffffffffffffffffffffffffffffffffffffffffffffff1916145b15610a7057506110e8565b7f3a00000000000000000000000000000000000000000000000000000000000000817effffffffffffffffffffffffffffffffffffffffffffffffffffffffffffff19161415610ada5760018660200151610acb9190612476565b866040018181525050506110e8565b7f2c00000000000000000000000000000000000000000000000000000000000000817effffffffffffffffffffffffffffffffffffffffffffffffffffffffffffff19161415610d21577fffffffffffffffffffffffffffffffffffffffffffffffffffffffffffffffff866040015114158015610b9f575060026004811115610b6757610b66612133565b5b8a876040015181518110610b7e57610b7d612162565b5b6020026020010151600001516004811115610b9c57610b9b612133565b5b14155b8015610bf2575060016004811115610bba57610bb9612133565b5b8a876040015181518110610bd157610bd0612162565b5b6020026020010151600001516004811115610bef57610bee612133565b5b14155b15610d1b5760018660200151610c089190612476565b92505b60008310610d1a5760026004811115610c2757610c26612133565b5b8a8481518110610c3a57610c39612162565b5b6020026020010151600001516004811115610c5857610c57612133565b5b1480610ca6575060016004811115610c7357610c72612133565b5b8a8481518110610c8657610c85612162565b5b6020026020010151600001516004811115610ca457610ca3612133565b5b145b15610d0757898381518110610cbe57610cbd612162565b5b6020026020010151604001518015610cf25750898381518110610ce457610ce3612162565b5b602002602001015160800151155b15610d065782866040018181525050610d1a565b5b8280610d12906124aa565b935050610c0b565b5b506110e8565b7f3000000000000000000000000000000000000000000000000000000000000000817effffffffffffffffffffffffffffffffffffffffffffffffffffffffffffff191610158015610db557507f3900000000000000000000000000000000000000000000000000000000000000817effffffffffffffffffffffffffffffffffffffffffffffffffffffffffffff191611155b80610e0157507f2d00000000000000000000000000000000000000000000000000000000000000817effffffffffffffffffffffffffffffffffffffffffffffffffffffffffffff1916145b80610e4d57507f6600000000000000000000000000000000000000000000000000000000000000817effffffffffffffffffffffffffffffffffffffffffffffffffffffffffffff1916145b80610e9957507f7400000000000000000000000000000000000000000000000000000000000000817effffffffffffffffffffffffffffffffffffffffffffffffffffffffffffff1916145b80610ee557507f6e00000000000000000000000000000000000000000000000000000000000000817effffffffffffffffffffffffffffffffffffffffffffffffffffffffffffff1916145b1561106d577fffffffffffffffffffffffffffffffffffffffffffffffffffffffffffffffff866040015114610fc75789866040015181518110610f2c57610f2b612162565b5b6020026020010151915060016004811115610f4a57610f49612133565b5b82600001516004811115610f6157610f60612133565b5b1480610fa9575060036004811115610f7c57610f7b612133565b5b82600001516004811115610f9357610f92612133565b5b148015610fa8575060008260a0015160ff1614155b5b15610fc65760018a60009a509a509a505050505050505050611119565b5b610fd2868b8a611a84565b945060008514610ff357848a60009a509a509a505050505050505050611119565b8380610ffe906123f6565b9450507fffffffffffffffffffffffffffffffffffffffffffffffffffffffffffffffff866040015114611067578986604001518151811061104357611042612162565b5b602002602001015160a001805180919061105c9061244c565b60ff1660ff16815250505b506110e8565b602060f81b817effffffffffffffffffffffffffffffffffffffffffffffffffffffffffffff1916101580156110c95750607e60f81b817effffffffffffffffffffffffffffffffffffffffffffffffffffffffffffff191611155b156110e65760018a60009a509a509a505050505050505050611119565b505b8460000180518091906110fa906123f6565b81525050610418565b6000898660200151995099509950505050505050505b9250925092565b60606000849050600084846111359190612476565b67ffffffffffffffff81111561114e5761114d611ea9565b5b6040519080825280601f01601f1916602001820160405280156111805781602001600182028036833780820191505090505b50905060008590505b8481101561120f578281815181106111a4576111a3612162565b5b602001015160f81c60f81b8287836111bc9190612476565b815181106111cd576111cc612162565b5b60200101907effffffffffffffffffffffffffffffffffffffffffffffffffffffffffffff1916908160001a9053508080611207906123f6565b915050611189565b5080925050509392505050565b6000808390506000839050600082519050808251101561123b57815190505b60005b8181101561139e5782818151811061125957611258612162565b5b602001015160f81c60f81b7effffffffffffffffffffffffffffffffffffffffffffffffffffffffffffff191684828151811061129957611298612162565b5b602001015160f81c60f81b7effffffffffffffffffffffffffffffffffffffffffffffffffffffffffffff191610156112f8577fffffffffffffffffffffffffffffffffffffffffffffffffffffffffffffffff9450505050506113f2565b82818151811061130b5761130a612162565b5b602001015160f81c60f81b7effffffffffffffffffffffffffffffffffffffffffffffffffffffffffffff191684828151811061134b5761134a612162565b5b602001015160f81c60f81b7effffffffffffffffffffffffffffffffffffffffffffffffffffffffffffff1916111561138b5760019450505050506113f2565b8080611396906123f6565b91505061123e565b508151835110156113d4577fffffffffffffffffffffffffffffffffffffffffffffffffffffffffffffffff93505050506113f2565b8151835111156113ea57600193505050506113f2565b600093505050505b92915050565b611400611e0a565b60606000604051806060016040528060008152602001600081526020017fffffffffffffffffffffffffffffffffffffffffffffffffffffffffffffffff815250905060008467ffffffffffffffff81111561145f5761145e611ea9565b5b60405190808252806020026020018201604052801561149857816020015b611485611e2b565b81526020019060019003908161147d5790505b5090508181935093505050915091565b60006114b2611e2b565b82518460200151106114f157600083600185516114cf9190612476565b815181106114e0576114df612162565b5b602002602001015191509150611583565b60006040518060c001604052806000600481111561151257611511612133565b5b81526020016000815260200160001515815260200160008152602001600015158152602001600060ff168152509050808486602001518151811061155957611558612162565b5b6020026020010181905250846020018051809190611576906123f6565b8152505060018192509250505b9250929050565b60008084600001519050600061159e611e2b565b8660000180518091906115b0906123f6565b815250505b845187600001511015611a6b576000858860000151815181106115db576115da612162565b5b602001015160f81c60f81b90507f2200000000000000000000000000000000000000000000000000000000000000817effffffffffffffffffffffffffffffffffffffffffffffffffffffffffffff1916141561168a5761163c88886114a8565b80935081945050508261166057838860000181815250506003945050505050611a7d565b61167d82600360018761167391906122c8565b8b60000151611d8b565b6000945050505050611a7d565b605c8160f81c60ff161480156116b057508551600189600001516116ae91906122c8565b105b15611a4e578760000180518091906116c7906123f6565b815250507f22000000000000000000000000000000000000000000000000000000000000008689600001518151811061170357611702612162565b5b602001015160f81c60f81b7effffffffffffffffffffffffffffffffffffffffffffffffffffffffffffff1916148061179e57507f2f000000000000000000000000000000000000000000000000000000000000008689600001518151811061176f5761176e612162565b5b602001015160f81c60f81b7effffffffffffffffffffffffffffffffffffffffffffffffffffffffffffff1916145b8061180b57507f5c00000000000000000000000000000000000000000000000000000000000000868960000151815181106117dc576117db612162565b5b602001015160f81c60f81b7effffffffffffffffffffffffffffffffffffffffffffffffffffffffffffff1916145b8061187857507f66000000000000000000000000000000000000000000000000000000000000008689600001518151811061184957611848612162565b5b602001015160f81c60f81b7effffffffffffffffffffffffffffffffffffffffffffffffffffffffffffff1916145b806118e557507f7200000000000000000000000000000000000000000000000000000000000000868960000151815181106118b6576118b5612162565b5b602001015160f81c60f81b7effffffffffffffffffffffffffffffffffffffffffffffffffffffffffffff1916145b8061195257507f6e000000000000000000000000000000000000000000000000000000000000008689600001518151811061192357611922612162565b5b602001015160f81c60f81b7effffffffffffffffffffffffffffffffffffffffffffffffffffffffffffff1916145b806119bf57507f6200000000000000000000000000000000000000000000000000000000000000868960000151815181106119905761198f612162565b5b602001015160f81c60f81b7effffffffffffffffffffffffffffffffffffffffffffffffffffffffffffff1916145b80611a2c57507f7400000000000000000000000000000000000000000000000000000000000000868960000151815181106119fd576119fc612162565b5b602001015160f81c60f81b7effffffffffffffffffffffffffffffffffffffffffffffffffffffffffffff1916145b15611a375750611a50565b838860000181815250506001945050505050611a7d565b505b866000018051809190611a62906123f6565b815250506115b5565b82876000018181525050600293505050505b9392505050565b60008060009050600085600001519050600080611a9f611e2b565b5b865189600001511015611d075786896000015181518110611ac457611ac3612162565b5b602001015160f81c60f81b92507f2000000000000000000000000000000000000000000000000000000000000000837effffffffffffffffffffffffffffffffffffffffffffffffffffffffffffff19161480611b6257507f0900000000000000000000000000000000000000000000000000000000000000837effffffffffffffffffffffffffffffffffffffffffffffffffffffffffffff1916145b80611bae57507f0a00000000000000000000000000000000000000000000000000000000000000837effffffffffffffffffffffffffffffffffffffffffffffffffffffffffffff1916145b80611bfa57507f0d00000000000000000000000000000000000000000000000000000000000000837effffffffffffffffffffffffffffffffffffffffffffffffffffffffffffff1916145b80611c4657507f2c00000000000000000000000000000000000000000000000000000000000000837effffffffffffffffffffffffffffffffffffffffffffffffffffffffffffff1916145b80611c765750607d60f81b837effffffffffffffffffffffffffffffffffffffffffffffffffffffffffffff1916145b80611ca65750605d60f81b837effffffffffffffffffffffffffffffffffffffffffffffffffffffffffffff1916145b15611cb45760019450611d07565b60208360f81c60ff161080611ccf5750607f8360f81c60ff16115b15611cec5783896000018181525050600195505050505050611d84565b886000018051809190611cfe906123f6565b81525050611aa0565b84611d245783896000018181525050600295505050505050611d84565b611d2e89896114a8565b809250819350505081611d535783896000018181525050600395505050505050611d84565b611d64816004868c60000151611d8b565b886000018051809190611d76906124aa565b815250506000955050505050505b9392505050565b8284600001906004811115611da357611da2612133565b5b90816004811115611db757611db6612133565b5b8152505081846020018181525050600184604001901515908115158152505080846060018181525050600184608001901515908115158152505060008460a0019060ff16908160ff168152505050505050565b60405180606001604052806000815260200160008152602001600081525090565b6040518060c0016040528060006004811115611e4a57611e49612133565b5b81526020016000815260200160001515815260200160008152602001600015158152602001600060ff1681525090565b6000604051905090565b600080fd5b600080fd5b600080fd5b600080fd5b6000601f19601f8301169050919050565b7f4e487b7100000000000000000000000000000000000000000000000000000000600052604160045260246000fd5b611ee182611e98565b810181811067ffffffffffffffff82111715611f0057611eff611ea9565b5b80604052505050565b6000611f13611e7a565b9050611f1f8282611ed8565b919050565b600067ffffffffffffffff821115611f3f57611f3e611ea9565b5b611f4882611e98565b9050602081019050919050565b82818337600083830152505050565b6000611f77611f7284611f24565b611f09565b905082815260208101848484011115611f9357611f92611e93565b5b611f9e848285611f55565b509392505050565b600082601f830112611fbb57611fba611e8e565b5b8135611fcb848260208601611f64565b91505092915050565b600060208284031215611fea57611fe9611e84565b5b600082013567ffffffffffffffff81111561200857612007611e89565b5b61201484828501611fa6565b91505092915050565b600081519050919050565b600082825260208201905092915050565b60005b8381101561205757808201518184015260208101905061203c565b83811115612066576000848401525b50505050565b60006120778261201d565b6120818185612028565b9350612091818560208601612039565b61209a81611e98565b840191505092915050565b600060208201905081810360008301526120bf818461206c565b905092915050565b7f4a534f4e207061727365206661696c6564000000000000000000000000000000600082015250565b60006120fd601183612028565b9150612108826120c7565b602082019050919050565b6000602082019050818103600083015261212c816120f0565b9050919050565b7f4e487b7100000000000000000000000000000000000000000000000000000000600052602160045260246000fd5b7f4e487b7100000000000000000000000000000000000000000000000000000000600052603260045260246000fd5b7f4578706563746564204a575420746f20626520616e206f626a65637400000000600082015250565b60006121c7601c83612028565b91506121d282612191565b602082019050919050565b600060208201905081810360008301526121f6816121ba565b9050919050565b7f4578706563746564204a575420746f20636f6e7461696e206f6e6c792073747260008201527f696e67206b657973000000000000000000000000000000000000000000000000602082015250565b6000612259602883612028565b9150612264826121fd565b604082019050919050565b600060208201905081810360008301526122888161224c565b9050919050565b6000819050919050565b7f4e487b7100000000000000000000000000000000000000000000000000000000600052601160045260246000fd5b60006122d38261228f565b91506122de8361228f565b9250827fffffffffffffffffffffffffffffffffffffffffffffffffffffffffffffffff0382111561231357612312612299565b5b828201905092915050565b7f45787065637465642073756220746f206265206120737472696e670000000000600082015250565b6000612354601b83612028565b915061235f8261231e565b602082019050919050565b6000602082019050818103600083015261238381612347565b9050919050565b7f436f756c64206e6f742066696e642073756220696e204a5754206f626a656374600082015250565b60006123c0602083612028565b91506123cb8261238a565b602082019050919050565b600060208201905081810360008301526123ef816123b3565b9050919050565b60006124018261228f565b91507fffffffffffffffffffffffffffffffffffffffffffffffffffffffffffffffff82141561243457612433612299565b5b600182019050919050565b600060ff82169050919050565b60006124578261243f565b915060ff82141561246b5761246a612299565b5b600182019050919050565b60006124818261228f565b915061248c8361228f565b92508282101561249f5761249e612299565b5b828203905092915050565b60006124b58261228f565b915060008214156124c9576124c8612299565b5b60018203905091905056fea26469706673582212202356adc17264352e11a7fba80b11d6f96fd136008ddd99d6bfb5694d64a6f1c564736f6c634300080a0033",
  "immutableReferences": {},
  "source": "// SPDX-License-Identifier: GPL-3.0-only\npragma solidity ^0.8.0;\n\nimport \"./JsmnSolLib.sol\";\n\ncontract JWT {\n    using JsmnSolLib for string;\n    \n    function getSub(string memory json) public pure returns (string memory) {\n        (uint exitCode, JsmnSolLib.Token[] memory tokens, uint ntokens) = json.parse(20);\n        require(exitCode == 0, \"JSON parse failed\");\n        \n        require(tokens[0].jsmnType == JsmnSolLib.JsmnType.OBJECT, \"Expected JWT to be an object\");\n        uint i = 1;\n        while (i < ntokens) {\n            require(tokens[i].jsmnType == JsmnSolLib.JsmnType.STRING, \"Expected JWT to contain only string keys\");\n            string memory key = json.getBytes(tokens[i].start, tokens[i].end);\n            if (key.strCompare(\"sub\") == 0) {\n                require(tokens[i+1].jsmnType == JsmnSolLib.JsmnType.STRING, \"Expected sub to be a string\");\n                return json.getBytes(tokens[i+1].start, tokens[i+1].end);\n            }\n            i += 2;\n        }\n        \n        revert(\"Could not find sub in JWT object\");\n    }\n}\n",
  "sourcePath": "/Users/calebsirak/ethdenver/solidity-jwt/contracts/JWT.sol",
  "compiler": {
    "name": "solc",
    "version": "0.8.10+commit.fc410830.Emscripten.clang"
  },
  "schemaVersion": "3.4.10",
  "updatedAt": "2023-03-05T13:35:17.537Z",
  "devdoc": {
    "kind": "dev",
    "methods": {},
    "version": 1
  },
  "userdoc": {
    "kind": "user",
    "methods": {},
    "version": 1
  }
}