{
  "contractName": "SolRsaVerify",
  "abi": [
    {
      "constant": true,
      "inputs": [
        {
          "name": "_sha256",
          "type": "bytes32"
        },
        {
          "name": "_s",
          "type": "bytes"
        },
        {
          "name": "_e",
          "type": "bytes"
        },
        {
          "name": "_m",
          "type": "bytes"
        }
      ],
      "name": "pkcs1Sha256Verify",
      "outputs": [
        {
          "name": "",
          "type": "uint256"
        }
      ],
      "payable": false,
      "stateMutability": "view",
      "type": "function"
    }
  ],
  "bytecode": "0x610798610030600b82828239805160001a6073146000811461002057610022565bfe5b5030600052607381538281f3fe73000000000000000000000000000000000000000030146080604052600436106100355760003560e01c8063a1a8858f1461003a575b600080fd5b61022b6004803603608081101561005057600080fd5b81019080803590602001909291908035906020019064010000000081111561007757600080fd5b82018360208201111561008957600080fd5b803590602001918460018302840111640100000000831117156100ab57600080fd5b91908080601f016020809104026020016040519081016040528093929190818152602001838380828437600081840152601f19601f8201169050808301925050505050505091929192908035906020019064010000000081111561010e57600080fd5b82018360208201111561012057600080fd5b8035906020019184600183028401116401000000008311171561014257600080fd5b91908080601f016020809104026020016040519081016040528093929190818152602001838380828437600081840152601f19601f820116905080830192505050505050509192919290803590602001906401000000008111156101a557600080fd5b8201836020820111156101b757600080fd5b803590602001918460018302840111640100000000831117156101d957600080fd5b91908080601f016020809104026020016040519081016040528093929190818152602001838380828437600081840152601f19601f820116905080830192505050505050509192919290505050610241565b6040518082815260200191505060405180910390f35b600061024b610748565b61026060405190810160405280603060ff168152602001603160ff168152602001603060ff168152602001600d60ff168152602001600660ff168152602001600960ff168152602001606060ff168152602001608660ff168152602001604860ff168152602001600160ff168152602001606560ff168152602001600360ff168152602001600460ff168152602001600260ff168152602001600160ff168152602001600560ff168152602001600060ff168152602001600460ff168152602001602060ff168152509050600b602060ff166013010183511015151561033057600080fd5b6000606061033f878787610629565b90506000815190506000865190506060816040519080825280601f01601f1916602001820160405280156103825781602001600182028038833980820191505090505b5090508160208201846020870160056107d05a03fa506000602060136003850303039050600060f81b8260008151811015156103ba57fe5b90602001015160f81c60f81b7effffffffffffffffffffffffffffffffffffffffffffffffffffffffffffff19161415806104165750600182600181518110151561040157fe5b90602001015160f81c60f81b60f81c60ff1614155b1561042b576001975050505050505050610621565b600295505b806002018610156104a05760ff60f81b828781518110151561044e57fe5b90602001015160f81c60f81b7effffffffffffffffffffffffffffffffffffffffffffffffffffffffffffff1916141515610493576002975050505050505050610621565b8580600101965050610430565b600060f81b82826002018151811015156104b657fe5b90602001015160f81c60f81b7effffffffffffffffffffffffffffffffffffffffffffffffffffffffffffff19161415156104fb576003975050505050505050610621565b600095505b601386101561056857868660138110151561051757fe5b602002015160ff168287836003010181518110151561053257fe5b90602001015160f81c60f81b60f81c60ff1614151561055b576004975050505050505050610621565b8580600101965050610500565b600095505b602060ff16861015610615578b8660208110151561058757fe5b1a60f81b7effffffffffffffffffffffffffffffffffffffffffffffffffffffffffffff1916828760138460030101018151811015156105c357fe5b90602001015160f81c60f81b7effffffffffffffffffffffffffffffffffffffffffffffffffffffffffffff1916141515610608576005975050505050505050610621565b858060010196505061056d565b60009750505050505050505b949350505050565b60606000825184518651606001010190506000855190506000855190506000855190506000806000806060886040519080825280601f01601f1916602001820160405280156106875781602001600182028038833980820191505090505b50905060208d01945060208c01935060208b0192508760208201528660408201528560608201526020810191506106c360608301868f516106fd565b6106d58d516060840101858e516106fd565b6106ea8c518e51606085010101848d516106fd565b8099505050505050505050509392505050565b5b60208110151561072357815183526020830192506020820191506020810390506106fe565b60006001826020036101000a0390508019835116818551168181178652505050505050565b6102606040519081016040528060139060208202803883398082019150509050509056fea165627a7a72305820533b08d53d95c6742ce5f79f2f9ff4fecbd4124d4994f64acf1460e58198e8890029",
  "source": "pragma solidity ^0.5.0;\n\n/*\n    Copyright 2016, Adrià Massanet\n\n    This program is free software: you can redistribute it and/or modify\n    it under the terms of the GNU General Public License as published by\n    the Free Software Foundation, either version 3 of the License, or\n    (at your option) any later version.\n\n    This program is distributed in the hope that it will be useful,\n    but WITHOUT ANY WARRANTY; without even the implied warranty of\n    MERCHANTABILITY or FITNESS FOR A PARTICULAR PURPOSE.  See the\n    GNU General Public License for more details.\n\n    You should have received a copy of the GNU General Public License\n    along with this program.  If not, see <http://www.gnu.org/licenses/>.\n    \n    Checked results with FIPS test vectors\n    https://csrc.nist.gov/CSRC/media/Projects/Cryptographic-Algorithm-Validation-Program/documents/dss/186-2rsatestvectors.zip\n    file SigVer15_186-3.rsp\n    \n */\n\nlibrary SolRsaVerify {\n    function memcpy(\n        uint256 _dest,\n        uint256 _src,\n        uint256 _len\n    ) internal pure {\n        // Copy word-length chunks while possible\n        for (; _len >= 32; _len -= 32) {\n            assembly {\n                mstore(_dest, mload(_src))\n            }\n            _dest += 32;\n            _src += 32;\n        }\n\n        // Copy remaining bytes\n        uint256 mask = 256**(32 - _len) - 1;\n        assembly {\n            let srcpart := and(mload(_src), not(mask))\n            let destpart := and(mload(_dest), mask)\n            mstore(_dest, or(destpart, srcpart))\n        }\n    }\n\n    function join(\n        bytes memory _s,\n        bytes memory _e,\n        bytes memory _m\n    ) internal pure returns (bytes memory) {\n        uint256 inputLen = 0x60 + _s.length + _e.length + _m.length;\n\n        uint256 slen = _s.length;\n        uint256 elen = _e.length;\n        uint256 mlen = _m.length;\n        uint256 sptr;\n        uint256 eptr;\n        uint256 mptr;\n        uint256 inputPtr;\n\n        bytes memory input = new bytes(inputLen);\n        assembly {\n            sptr := add(_s, 0x20)\n            eptr := add(_e, 0x20)\n            mptr := add(_m, 0x20)\n            mstore(add(input, 0x20), slen)\n            mstore(add(input, 0x40), elen)\n            mstore(add(input, 0x60), mlen)\n            inputPtr := add(input, 0x20)\n        }\n        memcpy(inputPtr + 0x60, sptr, _s.length);\n        memcpy(inputPtr + 0x60 + _s.length, eptr, _e.length);\n        memcpy(inputPtr + 0x60 + _s.length + _e.length, mptr, _m.length);\n\n        return input;\n    }\n\n    /** @dev Verifies a PKCSv1.5 SSolRsaVerifyHA256 signature\n     * @param _sha256 is the sha256 of the data\n     * @param _s is the signature\n     * @param _e is the exponent\n     * @param _m is the modulus\n     * @return 0 if success, >0 otherwise\n     */\n    function pkcs1Sha256Verify(\n        bytes32 _sha256,\n        bytes memory _s,\n        bytes memory _e,\n        bytes memory _m\n    ) public view returns (uint256) {\n        uint8[19] memory sha256Prefix = [\n            0x30,\n            0x31,\n            0x30,\n            0x0d,\n            0x06,\n            0x09,\n            0x60,\n            0x86,\n            0x48,\n            0x01,\n            0x65,\n            0x03,\n            0x04,\n            0x02,\n            0x01,\n            0x05,\n            0x00,\n            0x04,\n            0x20\n        ];\n\n        require(_m.length >= sha256Prefix.length + _sha256.length + 11);\n\n        uint256 i;\n\n        /// decipher\n        bytes memory input = join(_s, _e, _m);\n        uint256 inputlen = input.length;\n\n        uint256 decipherlen = _m.length;\n        bytes memory decipher = new bytes(decipherlen);\n        assembly {\n            pop(\n                staticcall(\n                    sub(gas, 2000),\n                    5,\n                    add(input, 0x20),\n                    inputlen,\n                    add(decipher, 0x20),\n                    decipherlen\n                )\n            )\n        }\n\n        /// 0x00 || 0x01 || PS || 0x00 || DigestInfo\n        /// PS is padding filled with 0xff\n        //  DigestInfo ::= SEQUENCE {\n        //     digestAlgorithm AlgorithmIdentifier,\n        //     digest OCTET STRING\n        //  }\n\n        uint256 paddingLen = decipherlen - 3 - sha256Prefix.length - 32;\n\n        if (decipher[0] != 0 || uint8(decipher[1]) != 1) {\n            return 1;\n        }\n        for (i = 2; i < 2 + paddingLen; i++) {\n            if (decipher[i] != 0xff) {\n                return 2;\n            }\n        }\n        if (decipher[2 + paddingLen] != 0) {\n            return 3;\n        }\n        for (i = 0; i < sha256Prefix.length; i++) {\n            if (uint8(decipher[3 + paddingLen + i]) != sha256Prefix[i]) {\n                return 4;\n            }\n        }\n        for (i = 0; i < _sha256.length; i++) {\n            if (\n                decipher[3 + paddingLen + sha256Prefix.length + i] != _sha256[i]\n            ) {\n                return 5;\n            }\n        }\n\n        return 0;\n    }\n\n    /** @dev Verifies a PKCSv1.5 SHA256 signature\n     * @param _data to verify\n     * @param _s is the signature\n     * @param _e is the exponent\n     * @param _m is the modulus\n     * @return 0 if success, >0 otherwise\n     */\n    function pkcs1Sha256VerifyRaw(\n        bytes memory _data,\n        bytes memory _s,\n        bytes memory _e,\n        bytes memory _m\n    ) internal view returns (uint256) {\n        return pkcs1Sha256Verify(sha256(_data), _s, _e, _m);\n    }\n\n    function pkcs1Sha256VerifyStr(\n        string memory _data,\n        bytes memory _s,\n        bytes memory _e,\n        bytes memory _m\n    ) internal view returns (uint256) {\n        return pkcs1Sha256Verify(sha256(bytes(_data)), _s, _e, _m);\n    }\n}\n",
  "sourcePath": "/Users/calebsirak/solidity-jwt/contracts/SolRsaVerify.sol",
  "compiler": {
    "name": "solc",
    "version": "0.5.4+commit.9549d8ff.Emscripten.clang"
  },
  "schemaVersion": "3.4.10",
  "updatedAt": "2023-02-02T20:07:58.347Z",
  "devdoc": {
    "methods": {
      "pkcs1Sha256Verify(bytes32,bytes,bytes,bytes)": {
        "details": "Verifies a PKCSv1.5 SSolRsaVerifyHA256 signature",
        "params": {
          "_e": "is the exponent",
          "_m": "is the modulus",
          "_s": "is the signature",
          "_sha256": "is the sha256 of the data"
        },
        "return": "0 if success, >0 otherwise"
      }
    }
  },
  "userdoc": {
    "methods": {}
  }
}