{
  "contractName": "SolRsaVerify",
  "abi": [
    {
      "inputs": [
        {
          "internalType": "bytes32",
          "name": "_sha256",
          "type": "bytes32"
        },
        {
          "internalType": "bytes",
          "name": "_s",
          "type": "bytes"
        },
        {
          "internalType": "bytes",
          "name": "_e",
          "type": "bytes"
        },
        {
          "internalType": "bytes",
          "name": "_m",
          "type": "bytes"
        }
      ],
      "name": "pkcs1Sha256Verify",
      "outputs": [
        {
          "internalType": "uint256",
          "name": "",
          "type": "uint256"
        }
      ],
      "stateMutability": "view",
      "type": "function"
    },
    {
      "inputs": [
        {
          "internalType": "bytes",
          "name": "_data",
          "type": "bytes"
        },
        {
          "internalType": "bytes",
          "name": "_s",
          "type": "bytes"
        },
        {
          "internalType": "bytes",
          "name": "_e",
          "type": "bytes"
        },
        {
          "internalType": "bytes",
          "name": "_m",
          "type": "bytes"
        }
      ],
      "name": "pkcs1Sha256VerifyRaw",
      "outputs": [
        {
          "internalType": "uint256",
          "name": "",
          "type": "uint256"
        }
      ],
      "stateMutability": "view",
      "type": "function"
    }
  ],
  "bytecode": "0x610ccc610053600b82828239805160001a607314610046577f4e487b7100000000000000000000000000000000000000000000000000000000600052600060045260246000fd5b30600052607381538281f3fe73000000000000000000000000000000000000000030146080604052600436106100405760003560e01c80632ae0783d14610045578063a1a8858f14610075575b600080fd5b61005f600480360381019061005a9190610896565b6100a5565b60405161006c9190610986565b60405180910390f35b61008f600480360381019061008a91906109d7565b61010c565b60405161009c9190610986565b60405180910390f35b60006101026002866040516100ba9190610b0c565b602060405180830381855afa1580156100d7573d6000803e3d6000fd5b5050506040513d601f19601f820116820180604052508101906100fa9190610b38565b85858561010c565b9050949350505050565b600080604051806102600160405280603060ff168152602001603160ff168152602001603060ff168152602001600d60ff168152602001600660ff168152602001600960ff168152602001606060ff168152602001608660ff168152602001604860ff168152602001600160ff168152602001606560ff168152602001600360ff168152602001600460ff168152602001600260ff168152602001600160ff168152602001600560ff168152602001600060ff168152602001600460ff168152602001602060ff168152509050600b602060ff1660136101ec9190610b94565b6101f69190610b94565b8351101561020357600080fd5b60008061021187878761059a565b905060008151905060008651905060008167ffffffffffffffff81111561023b5761023a61076b565b5b6040519080825280601f01601f19166020018201604052801561026d5781602001600182028036833780820191505090505b5090508160208201846020870160056107d05a03fa506000602060136003856102969190610bea565b6102a09190610bea565b6102aa9190610bea565b9050600060f81b826000815181106102c5576102c4610c1e565b5b602001015160f81c60f81b7effffffffffffffffffffffffffffffffffffffffffffffffffffffffffffff191614158061032457506001826001815181106103105761030f610c1e565b5b602001015160f81c60f81b60f81c60ff1614155b15610339576001975050505050505050610592565b600295505b80600261034b9190610b94565b8610156103bf5760ff60f81b82878151811061036a57610369610c1e565b5b602001015160f81c60f81b7effffffffffffffffffffffffffffffffffffffffffffffffffffffffffffff1916146103ac576002975050505050505050610592565b85806103b790610c4d565b96505061033e565b600060f81b828260026103d29190610b94565b815181106103e3576103e2610c1e565b5b602001015160f81c60f81b7effffffffffffffffffffffffffffffffffffffffffffffffffffffffffffff191614610425576003975050505050505050610592565b600095505b60138610156104b15786866013811061044657610445610c1e565b5b602002015160ff16828783600361045d9190610b94565b6104679190610b94565b8151811061047857610477610c1e565b5b602001015160f81c60f81b60f81c60ff161461049e576004975050505050505050610592565b85806104a990610c4d565b96505061042a565b600095505b602060ff16861015610586578b86602081106104d5576104d4610c1e565b5b1a60f81b7effffffffffffffffffffffffffffffffffffffffffffffffffffffffffffff19168287601384600361050c9190610b94565b6105169190610b94565b6105209190610b94565b8151811061053157610530610c1e565b5b602001015160f81c60f81b7effffffffffffffffffffffffffffffffffffffffffffffffffffffffffffff191614610573576005975050505050505050610592565b858061057e90610c4d565b9650506104b6565b60009750505050505050505b949350505050565b6060600082518451865160606105b09190610b94565b6105ba9190610b94565b6105c49190610b94565b905060008551905060008551905060008551905060008060008060008867ffffffffffffffff8111156105fa576105f961076b565b5b6040519080825280601f01601f19166020018201604052801561062c5781602001600182028036833780820191505090505b50905060208d01945060208c01935060208b0192508760208201528660408201528560608201526020810191506106716060836106699190610b94565b868f516106d8565b6106958d516060846106839190610b94565b61068d9190610b94565b858e516106d8565b6106c58c518e516060856106a99190610b94565b6106b39190610b94565b6106bd9190610b94565b848d516106d8565b8099505050505050505050509392505050565b5b6020811061071757815183526020836106f29190610b94565b92506020826107019190610b94565b91506020816107109190610bea565b90506106d9565b60006001826020036101000a0390508019835116818551168181178652505050505050565b6000604051905090565b600080fd5b600080fd5b600080fd5b600080fd5b6000601f19601f8301169050919050565b7f4e487b7100000000000000000000000000000000000000000000000000000000600052604160045260246000fd5b6107a38261075a565b810181811067ffffffffffffffff821117156107c2576107c161076b565b5b80604052505050565b60006107d561073c565b90506107e1828261079a565b919050565b600067ffffffffffffffff8211156108015761080061076b565b5b61080a8261075a565b9050602081019050919050565b82818337600083830152505050565b6000610839610834846107e6565b6107cb565b90508281526020810184848401111561085557610854610755565b5b610860848285610817565b509392505050565b600082601f83011261087d5761087c610750565b5b813561088d848260208601610826565b91505092915050565b600080600080608085870312156108b0576108af610746565b5b600085013567ffffffffffffffff8111156108ce576108cd61074b565b5b6108da87828801610868565b945050602085013567ffffffffffffffff8111156108fb576108fa61074b565b5b61090787828801610868565b935050604085013567ffffffffffffffff8111156109285761092761074b565b5b61093487828801610868565b925050606085013567ffffffffffffffff8111156109555761095461074b565b5b61096187828801610868565b91505092959194509250565b6000819050919050565b6109808161096d565b82525050565b600060208201905061099b6000830184610977565b92915050565b6000819050919050565b6109b4816109a1565b81146109bf57600080fd5b50565b6000813590506109d1816109ab565b92915050565b600080600080608085870312156109f1576109f0610746565b5b60006109ff878288016109c2565b945050602085013567ffffffffffffffff811115610a2057610a1f61074b565b5b610a2c87828801610868565b935050604085013567ffffffffffffffff811115610a4d57610a4c61074b565b5b610a5987828801610868565b925050606085013567ffffffffffffffff811115610a7a57610a7961074b565b5b610a8687828801610868565b91505092959194509250565b600081519050919050565b600081905092915050565b60005b83811015610ac6578082015181840152602081019050610aab565b83811115610ad5576000848401525b50505050565b6000610ae682610a92565b610af08185610a9d565b9350610b00818560208601610aa8565b80840191505092915050565b6000610b188284610adb565b915081905092915050565b600081519050610b32816109ab565b92915050565b600060208284031215610b4e57610b4d610746565b5b6000610b5c84828501610b23565b91505092915050565b7f4e487b7100000000000000000000000000000000000000000000000000000000600052601160045260246000fd5b6000610b9f8261096d565b9150610baa8361096d565b9250827fffffffffffffffffffffffffffffffffffffffffffffffffffffffffffffffff03821115610bdf57610bde610b65565b5b828201905092915050565b6000610bf58261096d565b9150610c008361096d565b925082821015610c1357610c12610b65565b5b828203905092915050565b7f4e487b7100000000000000000000000000000000000000000000000000000000600052603260045260246000fd5b6000610c588261096d565b91507fffffffffffffffffffffffffffffffffffffffffffffffffffffffffffffffff821415610c8b57610c8a610b65565b5b60018201905091905056fea264697066735822122089704c3e3ef03580bcf8a697a050fa13d6e070c02b060a47f938922ee09985a464736f6c634300080a0033",
  "immutableReferences": {},
  "source": "pragma solidity ^0.8.9;\n\n/*\n    Copyright 2016, Adri Massanet\n\n    This program is free software: you can redistribute it and/or modify\n    it under the terms of the GNU General Public License as published by\n    the Free Software Foundation, either version 3 of the License, or\n    (at your option) any later version.\n\n    This program is distributed in the hope that it will be useful,\n    but WITHOUT ANY WARRANTY; without even the implied warranty of\n    MERCHANTABILITY or FITNESS FOR A PARTICULAR PURPOSE.  See the\n    GNU General Public License for more details.\n\n    You should have received a copy of the GNU General Public License\n    along with this program.  If not, see <http://www.gnu.org/licenses/>.\n    \n    Checked results with FIPS test vectors\n    https://csrc.nist.gov/CSRC/media/Projects/Cryptographic-Algorithm-Validation-Program/documents/dss/186-2rsatestvectors.zip\n    file SigVer15_186-3.rsp\n    \n */\n\nlibrary SolRsaVerify {\n\n    function memcpy(uint _dest, uint _src, uint _len) pure internal {\n        // Copy word-length chunks while possible\n        for ( ;_len >= 32; _len -= 32) {\n            assembly {\n                mstore(_dest, mload(_src))\n            }\n            _dest += 32;\n            _src += 32;\n        }\n\n        // Copy remaining bytes\n        unchecked {\n            uint mask = 256 ** (32 - _len) - 1;\n            assembly {\n                let srcpart := and(mload(_src), not(mask))\n                let destpart := and(mload(_dest), mask)\n                mstore(_dest, or(destpart, srcpart))\n            }\n        }\n    }\n\n    \n    function join(\n\tbytes memory _s, bytes memory _e, bytes memory _m\n    ) pure internal returns (bytes memory) {\n        uint inputLen = 0x60+_s.length+_e.length+_m.length;\n        \n        uint slen = _s.length;\n        uint elen = _e.length;\n        uint mlen = _m.length;\n        uint sptr;\n        uint eptr;\n        uint mptr;\n        uint inputPtr;\n        \n        bytes memory input = new bytes(inputLen);\n        assembly {\n            sptr := add(_s,0x20)\n            eptr := add(_e,0x20)\n            mptr := add(_m,0x20)\n            mstore(add(input,0x20),slen)\n            mstore(add(input,0x40),elen)\n            mstore(add(input,0x60),mlen)\n            inputPtr := add(input,0x20)\n        }\n        memcpy(inputPtr+0x60,sptr,_s.length);        \n        memcpy(inputPtr+0x60+_s.length,eptr,_e.length);        \n        memcpy(inputPtr+0x60+_s.length+_e.length,mptr,_m.length);\n\n        return input;\n    }\n    \n    /** @dev Verifies a PKCSv1.5 SHA256 signature\n      * @param _sha256 is the sha256 of the data\n      * @param _s is the signature\n      * @param _e is the exponent\n      * @param _m is the modulus\n      * @return 0 if success, >0 otherwise\n    */    \n    function pkcs1Sha256Verify(\n        bytes32 _sha256,\n        bytes memory _s, bytes memory _e, bytes memory _m\n    ) public view returns (uint) {\n        \n        uint8[19] memory sha256Prefix = [\n            0x30, 0x31, 0x30, 0x0d, 0x06, 0x09, 0x60, 0x86, 0x48, 0x01, 0x65, 0x03, 0x04, 0x02, 0x01, 0x05, 0x00, 0x04, 0x20\n        ];\n        \n      \trequire(_m.length >= sha256Prefix.length+_sha256.length+11);\n\n        uint i;\n\n        /// decipher\n        bytes memory input = join(_s,_e,_m);\n        uint inputlen = input.length;\n\n        uint decipherlen = _m.length;\n        bytes memory decipher = new bytes(decipherlen);\n        assembly {\n            pop(staticcall(sub(gas(), 2000), 5, add(input,0x20), inputlen, add(decipher,0x20), decipherlen))\n\t}\n        \n        /// 0x00 || 0x01 || PS || 0x00 || DigestInfo\n        /// PS is padding filled with 0xff\n        //  DigestInfo ::= SEQUENCE {\n        //     digestAlgorithm AlgorithmIdentifier,\n        //     digest OCTET STRING\n        //  }\n        \n        uint paddingLen = decipherlen - 3 - sha256Prefix.length - 32;\n        \n        if (decipher[0] != 0 || uint8(decipher[1]) != 1) {\n            return 1;\n        }\n        for (i = 2;i<2+paddingLen;i++) {\n            if (decipher[i] != 0xff) {\n                return 2;\n            }\n        }\n        if (decipher[2+paddingLen] != 0) {\n            return 3;\n        }\n        for (i = 0;i<sha256Prefix.length;i++) {\n            if (uint8(decipher[3+paddingLen+i])!=sha256Prefix[i]) {\n                return 4;\n            }\n        }\n        for (i = 0;i<_sha256.length;i++) {\n            if (decipher[3+paddingLen+sha256Prefix.length+i]!=_sha256[i]) {\n                return 5;\n            }\n        }\n\n        return 0;\n    }\n\n    /** @dev Verifies a PKCSv1.5 SHA256 signature\n      * @param _data to verify\n      * @param _s is the signature\n      * @param _e is the exponent\n      * @param _m is the modulus\n      * @return 0 if success, >0 otherwise\n    */    \n    function pkcs1Sha256VerifyRaw(\n        bytes memory _data, \n        bytes memory _s, bytes memory _e, bytes memory _m\n    ) public view returns (uint) {\n        return pkcs1Sha256Verify(sha256(_data),_s,_e,_m);\n    }\n\n      function pkcs1Sha256VerifyStr(\n        string memory _data,\n        bytes memory _s,\n        bytes memory _e,\n        bytes memory _m\n    ) internal view returns (uint256) {\n        return pkcs1Sha256Verify(sha256(bytes(_data)), _s, _e, _m);\n    }\n\n}",
  "sourcePath": "/Users/calebsirak/ethdenver/solidity-jwt/contracts/SolRsaVerify.sol",
  "compiler": {
    "name": "solc",
    "version": "0.8.10+commit.fc410830.Emscripten.clang"
  },
  "schemaVersion": "3.4.10",
  "updatedAt": "2023-03-05T13:35:17.550Z",
  "devdoc": {
    "kind": "dev",
    "methods": {
      "pkcs1Sha256Verify(bytes32,bytes,bytes,bytes)": {
        "details": "Verifies a PKCSv1.5 SHA256 signature",
        "params": {
          "_e": "is the exponent",
          "_m": "is the modulus",
          "_s": "is the signature",
          "_sha256": "is the sha256 of the data"
        },
        "returns": {
          "_0": "0 if success, >0 otherwise"
        }
      },
      "pkcs1Sha256VerifyRaw(bytes,bytes,bytes,bytes)": {
        "details": "Verifies a PKCSv1.5 SHA256 signature",
        "params": {
          "_data": "to verify",
          "_e": "is the exponent",
          "_m": "is the modulus",
          "_s": "is the signature"
        },
        "returns": {
          "_0": "0 if success, >0 otherwise"
        }
      }
    },
    "version": 1
  },
  "userdoc": {
    "kind": "user",
    "methods": {},
    "version": 1
  }
}