{
  "contractName": "TestIdentity",
  "abi": [
    {
      "constant": true,
      "inputs": [],
      "name": "subject",
      "outputs": [
        {
          "name": "",
          "type": "string"
        }
      ],
      "payable": false,
      "stateMutability": "view",
      "type": "function"
    },
    {
      "constant": true,
      "inputs": [],
      "name": "audience",
      "outputs": [
        {
          "name": "",
          "type": "string"
        }
      ],
      "payable": false,
      "stateMutability": "view",
      "type": "function"
    },
    {
      "constant": true,
      "inputs": [],
      "name": "keys",
      "outputs": [
        {
          "name": "",
          "type": "address"
        }
      ],
      "payable": false,
      "stateMutability": "view",
      "type": "function"
    },
    {
      "constant": true,
      "inputs": [
        {
          "name": "",
          "type": "address"
        }
      ],
      "name": "accounts",
      "outputs": [
        {
          "name": "",
          "type": "bool"
        }
      ],
      "payable": false,
      "stateMutability": "view",
      "type": "function"
    },
    {
      "constant": false,
      "inputs": [
        {
          "name": "headerJson",
          "type": "string"
        },
        {
          "name": "payloadJson",
          "type": "string"
        },
        {
          "name": "signature",
          "type": "bytes"
        }
      ],
      "name": "recover",
      "outputs": [],
      "payable": false,
      "stateMutability": "nonpayable",
      "type": "function"
    },
    {
      "constant": true,
      "inputs": [],
      "name": "getAccounts",
      "outputs": [
        {
          "name": "",
          "type": "address[]"
        }
      ],
      "payable": false,
      "stateMutability": "view",
      "type": "function"
    },
    {
      "inputs": [
        {
          "name": "sub",
          "type": "string"
        },
        {
          "name": "aud",
          "type": "string"
        }
      ],
      "payable": true,
      "stateMutability": "payable",
      "type": "constructor"
    }
  ],
  "bytecode": "0x60806040526040516200415a3803806200415a833981018060405260408110156200002957600080fd5b8101908080516401000000008111156200004257600080fd5b828101905060208101848111156200005957600080fd5b81518560018202830111640100000000821117156200007757600080fd5b505092919060200180516401000000008111156200009457600080fd5b82810190506020810184811115620000ab57600080fd5b8151856001820283011164010000000082111715620000c957600080fd5b50509291905050508181600060016000803373ffffffffffffffffffffffffffffffffffffffff1673ffffffffffffffffffffffffffffffffffffffff16815260200190815260200160002060006101000a81548160ff02191690831515021790555060013390806001815401808255809150509060018203906000526020600020016000909192909190916101000a81548173ffffffffffffffffffffffffffffffffffffffff021916908373ffffffffffffffffffffffffffffffffffffffff160217905550508160029080519060200190620001aa92919062000210565b508260039080519060200190620001c392919062000210565b5080600460006101000a81548173ffffffffffffffffffffffffffffffffffffffff021916908373ffffffffffffffffffffffffffffffffffffffff1602179055505050505050620002bf565b828054600181600116156101000203166002900490600052602060002090601f016020900481019282601f106200025357805160ff191683800117855562000284565b8280016001018555821562000284579182015b828111156200028357825182559160200191906001019062000266565b5b50905062000293919062000297565b5090565b620002bc91905b80821115620002b85760008160009055506001016200029e565b5090565b90565b613e8b80620002cf6000396000f3fe608060405234801561001057600080fd5b50600436106100625760003560e01c80630a59a98c146100675780631ee1f800146100ea578063307540f61461016d5780635e5c06e2146101b75780637fac7eec146102135780638a48ac03146103fc575b600080fd5b61006f61045b565b6040518080602001828103825283818151815260200191508051906020019080838360005b838110156100af578082015181840152602081019050610094565b50505050905090810190601f1680156100dc5780820380516001836020036101000a031916815260200191505b509250505060405180910390f35b6100f26104f9565b6040518080602001828103825283818151815260200191508051906020019080838360005b83811015610132578082015181840152602081019050610117565b50505050905090810190601f16801561015f5780820380516001836020036101000a031916815260200191505b509250505060405180910390f35b610175610597565b604051808273ffffffffffffffffffffffffffffffffffffffff1673ffffffffffffffffffffffffffffffffffffffff16815260200191505060405180910390f35b6101f9600480360360208110156101cd57600080fd5b81019080803573ffffffffffffffffffffffffffffffffffffffff1690602001909291905050506105bd565b604051808215151515815260200191505060405180910390f35b6103fa6004803603606081101561022957600080fd5b810190808035906020019064010000000081111561024657600080fd5b82018360208201111561025857600080fd5b8035906020019184600183028401116401000000008311171561027a57600080fd5b91908080601f016020809104026020016040519081016040528093929190818152602001838380828437600081840152601f19601f820116905080830192505050505050509192919290803590602001906401000000008111156102dd57600080fd5b8201836020820111156102ef57600080fd5b8035906020019184600183028401116401000000008311171561031157600080fd5b91908080601f016020809104026020016040519081016040528093929190818152602001838380828437600081840152601f19601f8201169050808301925050505050505091929192908035906020019064010000000081111561037457600080fd5b82018360208201111561038657600080fd5b803590602001918460018302840111640100000000831117156103a857600080fd5b91908080601f016020809104026020016040519081016040528093929190818152602001838380828437600081840152601f19601f8201169050808301925050505050505091929192905050506105dd565b005b610404610bf4565b6040518080602001828103825283818151815260200191508051906020019060200280838360005b8381101561044757808201518184015260208101905061042c565b505050509050019250505060405180910390f35b60038054600181600116156101000203166002900480601f0160208091040260200160405190810160405280929190818152602001828054600181600116156101000203166002900480156104f15780601f106104c6576101008083540402835291602001916104f1565b820191906000526020600020905b8154815290600101906020018083116104d457829003601f168201915b505050505081565b60028054600181600116156101000203166002900480601f01602080910402602001604051908101604052809291908181526020018280546001816001161561010002031660029004801561058f5780601f106105645761010080835404028352916020019161058f565b820191906000526020600020905b81548152906001019060200180831161057257829003601f168201915b505050505081565b600460009054906101000a900473ffffffffffffffffffffffffffffffffffffffff1681565b60006020528060005260406000206000915054906101000a900460ff1681565b60606105e884610c82565b905060606105f584610c82565b90506060600260405190808252806020026020018201604052801561063457816020015b610621613b6b565b8152602001906001900390816106195790505b50905061064083610fed565b81600081518110151561064f57fe5b9060200190602002018190525061066582610fed565b81600181518110151561067457fe5b9060200190602002018190525060606106d3826106c56040805190810160405280600181526020017f2e00000000000000000000000000000000000000000000000000000000000000815250610fed565b61101b90919063ffffffff16565b905060606106e08861117f565b905060606106ed8261151c565b905060606106fa8361153f565b9050600061071589848488611565909392919063ffffffff16565b14151561078a576040517f08c379a000000000000000000000000000000000000000000000000000000000815260040180806020018281038252601a8152602001807f525341207369676e617475726520636865636b206661696c656400000000000081525060200191505060405180910390fd5b60608060606107988c61161c565b925092509250600061084d60028054600181600116156101000203166002900480601f0160208091040260200160405190810160405280929190818152602001828054600181600116156101000203166002900480156108395780601f1061080e57610100808354040283529160200191610839565b820191906000526020600020905b81548152906001019060200180831161081c57829003601f168201915b505050505085611c5e90919063ffffffff16565b1480610857575060015b15156108cb576040517f08c379a00000000000000000000000000000000000000000000000000000000081526004018080602001828103825260178152602001807f41756469656e636520646f6573206e6f74206d6174636800000000000000000081525060200191505060405180910390fd5b600061097a60038054600181600116156101000203166002900480601f0160208091040260200160405190810160405280929190818152602001828054600181600116156101000203166002900480156109665780601f1061093b57610100808354040283529160200191610966565b820191906000526020600020905b81548152906001019060200180831161094957829003601f168201915b505050505083611c5e90919063ffffffff16565b1415156109ef576040517f08c379a00000000000000000000000000000000000000000000000000000000081526004018080602001828103825260168152602001807f5375626a65637420646f6573206e6f74206d617463680000000000000000000081525060200191505060405180910390fd5b6060610a4833604051602001808273ffffffffffffffffffffffffffffffffffffffff1673ffffffffffffffffffffffffffffffffffffffff1660601b8152601401915050604051602081830303815290604052610c82565b90506000610a5f8483611c5e90919063ffffffff16565b141515610ad4576040517f08c379a000000000000000000000000000000000000000000000000000000000815260040180806020018281038252601b8152602001807f53656e64657220646f6573206e6f74206d61746368206e6f6e6365000000000081525060200191505060405180910390fd5b6000803373ffffffffffffffffffffffffffffffffffffffff1673ffffffffffffffffffffffffffffffffffffffff16815260200190815260200160002060009054906101000a900460ff161515610be45760016000803373ffffffffffffffffffffffffffffffffffffffff1673ffffffffffffffffffffffffffffffffffffffff16815260200190815260200160002060006101000a81548160ff02191690831515021790555060013390806001815401808255809150509060018203906000526020600020016000909192909190916101000a81548173ffffffffffffffffffffffffffffffffffffffff021916908373ffffffffffffffffffffffffffffffffffffffff160217905550505b5050505050505050505050505050565b60606001805480602002602001604051908101604052809291908181526020018280548015610c7857602002820191906000526020600020905b8160009054906101000a900473ffffffffffffffffffffffffffffffffffffffff1673ffffffffffffffffffffffffffffffffffffffff1681526020019060010190808311610c2e575b5050505050905090565b606080829050600060038251811515610c9757fe5b0690506000600382600303811515610cab57fe5b06600460036002865101811515610cbe57fe5b04020390506060816040519080825280601f01601f191660200182016040528015610cf85781602001600182028038833980820191505090505b509050600080905060008090505b855160038301111515610e8b57610d818683815181101515610d2457fe5b90602001015160f81c60f81b60f81c60ff168760018501815181101515610d4757fe5b90602001015160f81c60f81b60f81c60ff168860028601815181101515610d6a57fe5b90602001015160f81c60f81b60f81c60ff16611e28565b8685815181101515610d8f57fe5b90602001018760018701815181101515610da557fe5b90602001018860028801815181101515610dbb57fe5b90602001018960038901815181101515610dd157fe5b9060200101847effffffffffffffffffffffffffffffffffffffffffffffffffffffffffffff191660001a9053847effffffffffffffffffffffffffffffffffffffffffffffffffffffffffffff191660001a9053847effffffffffffffffffffffffffffffffffffffffffffffffffffffffffffff191660001a9053847effffffffffffffffffffffffffffffffffffffffffffffffffffffffffffff191660001a905350505050600481019050600382019150610d06565b600085141515610fdf5760008686885103815181101515610ea857fe5b90602001015160f81c60f81b60f81c905060008090506002871415610eeb57876001895103815181101515610ed957fe5b90602001015160f81c60f81b60f81c90505b600080600080610f038660ff168660ff166000611e28565b9350935093509350838988815181101515610f1a57fe5b9060200101907effffffffffffffffffffffffffffffffffffffffffffffffffffffffffffff1916908160001a905350828960018901815181101515610f5c57fe5b9060200101907effffffffffffffffffffffffffffffffffffffffffffffffffffffffffffff1916908160001a90535060028b1415610fd857818960028901815181101515610fa757fe5b9060200101907effffffffffffffffffffffffffffffffffffffffffffffffffffffffffffff1916908160001a9053505b5050505050505b829650505050505050919050565b610ff5613b85565b600060208301905060408051908101604052808451815260200182815250915050919050565b606060008251141561103f5760206040519081016040528060008152509050611179565b60006001835103846000015102905060008090505b835181101561108a57838181518110151561106b57fe5b9060200190602002015160000151820191508080600101915050611054565b506060816040519080825280601f01601f1916602001820160405280156110c05781602001600182028038833980820191505090505b509050600060208201905060008090505b85518110156111715761111b8287838151811015156110ec57fe5b9060200190602002015160200151888481518110151561110857fe5b9060200190602002015160000151611f4d565b858181518110151561112957fe5b90602001906020020151600001518201915060018651038110156111645761115a8288602001518960000151611f4d565b8660000151820191505b80806001019150506110d1565b508193505050505b92915050565b606060006060600061119b601486611f9890919063ffffffff16565b925092509250600083141515611219576040517f08c379a00000000000000000000000000000000000000000000000000000000081526004018080602001828103825260118152602001807f4a534f4e207061727365206661696c656400000000000000000000000000000081525060200191505060405180910390fd5b6001600481111561122657fe5b82600081518110151561123557fe5b9060200190602002015160000151600481111561124e57fe5b1415156112c3576040517f08c379a000000000000000000000000000000000000000000000000000000000815260040180806020018281038252601c8152602001807f4578706563746564204a575420746f20626520616e206f626a6563740000000081525060200191505060405180910390fd5b6000600190505b8181101561151257600360048111156112df57fe5b83828151811015156112ed57fe5b9060200190602002015160000151600481111561130657fe5b14151561135e576040517f08c379a0000000000000000000000000000000000000000000000000000000008152600401808060200182810382526028815260200180613e386028913960400191505060405180910390fd5b60606113ab848381518110151561137157fe5b9060200190602002015160200151858481518110151561138d57fe5b906020019060200201516060015189612c119092919063ffffffff16565b905060006113f76040805190810160405280600381526020017f6b6964000000000000000000000000000000000000000000000000000000000081525083611c5e90919063ffffffff16565b1415611506576003600481111561140a57fe5b846001840181518110151561141b57fe5b9060200190602002015160000151600481111561143457fe5b1415156114a9576040517f08c379a000000000000000000000000000000000000000000000000000000000815260040180806020018281038252601b8152602001807f4578706563746564206b696420746f206265206120737472696e67000000000081525060200191505060405180910390fd5b6114fa84600184018151811015156114bd57fe5b906020019060200201516020015185600185018151811015156114dc57fe5b906020019060200201516060015189612c119092919063ffffffff16565b95505050505050611517565b600282019150506112ca565b505050505b919050565b606060a06040519081016040528060808152602001613c78608091399050919050565b6060610120604051908101604052806101008152602001613d3861010091399050919050565b60006116126002866040518082805190602001908083835b6020831015156115a2578051825260208201915060208101905060208303925061157d565b6001836020036101000a038019825116818451168082178552505050505050905001915050602060405180830381855afa1580156115e4573d6000803e3d6000fd5b5050506040513d60208110156115f957600080fd5b8101908080519060200190929190505050858585612cd3565b9050949350505050565b606080606060006060600061163b602888611f9890919063ffffffff16565b9250925092506000831415156116b9576040517f08c379a00000000000000000000000000000000000000000000000000000000081526004018080602001828103825260118152602001807f4a534f4e207061727365206661696c656400000000000000000000000000000081525060200191505060405180910390fd5b600160048111156116c657fe5b8260008151811015156116d557fe5b906020019060200201516000015160048111156116ee57fe5b141515611763576040517f08c379a000000000000000000000000000000000000000000000000000000000815260040180806020018281038252601c8152602001807f4578706563746564204a575420746f20626520616e206f626a6563740000000081525060200191505060405180910390fd5b6000600190505b81811015611c53576003600481111561177f57fe5b838281518110151561178d57fe5b906020019060200201516000015160048111156117a657fe5b1415156117fe576040517f08c379a0000000000000000000000000000000000000000000000000000000008152600401808060200182810382526028815260200180613e386028913960400191505060405180910390fd5b606061184b848381518110151561181157fe5b9060200190602002015160200151858481518110151561182d57fe5b90602001906020020151606001518b612c119092919063ffffffff16565b905060006118976040805190810160405280600381526020017f737562000000000000000000000000000000000000000000000000000000000081525083611c5e90919063ffffffff16565b14156119a157600360048111156118aa57fe5b84600184018151811015156118bb57fe5b906020019060200201516000015160048111156118d457fe5b141515611949576040517f08c379a000000000000000000000000000000000000000000000000000000000815260040180806020018281038252601b8152602001807f45787065637465642073756220746f206265206120737472696e67000000000081525060200191505060405180910390fd5b61199a846001840181518110151561195d57fe5b9060200190602002015160200151856001850181518110151561197c57fe5b90602001906020020151606001518b612c119092919063ffffffff16565b9550611c47565b60006119eb6040805190810160405280600381526020017f617564000000000000000000000000000000000000000000000000000000000081525083611c5e90919063ffffffff16565b1415611af557600360048111156119fe57fe5b8460018401815181101515611a0f57fe5b90602001906020020151600001516004811115611a2857fe5b141515611a9d576040517f08c379a000000000000000000000000000000000000000000000000000000000815260040180806020018281038252601b8152602001807f45787065637465642061756420746f206265206120737472696e67000000000081525060200191505060405180910390fd5b611aee8460018401815181101515611ab157fe5b90602001906020020151602001518560018501815181101515611ad057fe5b90602001906020020151606001518b612c119092919063ffffffff16565b9750611c46565b6000611b3f6040805190810160405280600581526020017f6e6f6e636500000000000000000000000000000000000000000000000000000081525083611c5e90919063ffffffff16565b1415611c455760036004811115611b5257fe5b8460018401815181101515611b6357fe5b90602001906020020151600001516004811115611b7c57fe5b141515611bf1576040517f08c379a000000000000000000000000000000000000000000000000000000000815260040180806020018281038252601d8152602001807f4578706563746564206e6f6e636520746f206265206120737472696e6700000081525060200191505060405180910390fd5b611c428460018401815181101515611c0557fe5b90602001906020020151602001518560018501815181101515611c2457fe5b90602001906020020151606001518b612c119092919063ffffffff16565b96505b5b5b6002820191505061176a565b505050509193909250565b6000606083905060608390506000825190508082511015611c7e57815190505b60008090505b81811015611dce578281815181101515611c9a57fe5b90602001015160f81c60f81b7effffffffffffffffffffffffffffffffffffffffffffffffffffffffffffff19168482815181101515611cd657fe5b90602001015160f81c60f81b7effffffffffffffffffffffffffffffffffffffffffffffffffffffffffffff19161015611d36577fffffffffffffffffffffffffffffffffffffffffffffffffffffffffffffffff945050505050611e22565b8281815181101515611d4457fe5b90602001015160f81c60f81b7effffffffffffffffffffffffffffffffffffffffffffffffffffffffffffff19168482815181101515611d8057fe5b90602001015160f81c60f81b7effffffffffffffffffffffffffffffffffffffffffffffffffffffffffffff19161115611dc1576001945050505050611e22565b8080600101915050611c84565b50815183511015611e04577fffffffffffffffffffffffffffffffffffffffffffffffffffffffffffffffff9350505050611e22565b815183511115611e1a5760019350505050611e22565b600093505050505b92915050565b600080600080600085600888901b60108a901b171790506000603f601283901c1690506000603f600c84901c1690506000603f600685901c1690506000603f8516905060606040519081016040528060408152602001613cf86040913984815181101515611e9257fe5b90602001015160f81c60f81b985060606040519081016040528060408152602001613cf86040913983815181101515611ec757fe5b90602001015160f81c60f81b975060606040519081016040528060408152602001613cf86040913982815181101515611efc57fe5b90602001015160f81c60f81b965060606040519081016040528060408152602001613cf86040913981815181101515611f3157fe5b90602001015160f81c60f81b9550505050505093509350935093565b5b602081101515611f735781518352602083019250602082019150602081039050611f4e565b60006001826020036101000a0390508019835116818551168181178652505050505050565b60006060600060608590506000611fad613b9f565b611fb6876130bb565b8096508192505050600080826020015190506000611fd2613bc1565b5b865185600001511015612bf4576000878660000151815181101515611ff457fe5b90602001015160f81c60f81b9050607b60f81b817effffffffffffffffffffffffffffffffffffffffffffffffffffffffffffff1916148061205b5750605b60f81b817effffffffffffffffffffffffffffffffffffffffffffffffffffffffffffff1916145b15612189578380600101945050612072868b613159565b809350819850505086151561209c5760038a60008090509a509a509a505050505050505050612c0a565b7fffffffffffffffffffffffffffffffffffffffffffffffffffffffffffffffff86604001511415156120fb578986604001518151811015156120db57fe5b9060200190602002015160a001805180919060010160ff1660ff16815250505b607b60f81b817effffffffffffffffffffffffffffffffffffffffffffffffffffffffffffff19161461212f576002612132565b60015b8260000190600481111561214257fe5b9081600481111561214f57fe5b8152505085600001518260200181815250506001826040019015159081151581525050600186602001510386604001818152505050612bdf565b607d60f81b817effffffffffffffffffffffffffffffffffffffffffffffffffffffffffffff191614806121e25750605d60f81b817effffffffffffffffffffffffffffffffffffffffffffffffffffffffffffff1916145b1561241d576000607d60f81b827effffffffffffffffffffffffffffffffffffffffffffffffffffffffffffff19161461221d576002612220565b60015b90506000809050600188602001510394505b60008510151561233f578b8581518110151561224a57fe5b9060200190602002015193508360400151801561226957508360800151155b156123315781600481111561227a57fe5b8460000151600481111561228a57fe5b1415156122ae5760018c60008090509c509c509c5050505050505050505050612c0a565b7fffffffffffffffffffffffffffffffffffffffffffffffffffffffffffffffff88604001818152505060018860000151018c868151811015156122ee57fe5b90602001906020020151606001818152505060018c8681518110151561231057fe5b9060200190602002015160800190151590811515815250506001905061233f565b848060019003955050612232565b8015156123635760018c60008090509c509c509c5050505050505050505050612c0a565b5b60008511156123bc578b8581518110151561237b57fe5b9060200190602002015193508360400151801561239a57508360800151155b156123ae57848860400181815250506123bc565b848060019003955050612364565b6000851415612415578b858151811015156123d357fe5b906020019060200201519350836040015180156123f257508360800151155b1561241457846fffffffffffffffffffffffffffffffff168860400181815250505b5b505050612bdf565b7f2200000000000000000000000000000000000000000000000000000000000000817effffffffffffffffffffffffffffffffffffffffffffffffffffffffffffff1916141561250557612472868b8a61322b565b945060008514151561249857848a60008090509a509a509a505050505050505050612c0a565b83806001019450507fffffffffffffffffffffffffffffffffffffffffffffffffffffffffffffffff86604001511415156124ff578986604001518151811015156124df57fe5b9060200190602002015160a001805180919060010160ff1660ff16815250505b50612bdf565b7f2000000000000000000000000000000000000000000000000000000000000000817effffffffffffffffffffffffffffffffffffffffffffffffffffffffffffff1916148061257a5750601160f81b817effffffffffffffffffffffffffffffffffffffffffffffffffffffffffffff1916145b806125aa5750601260f81b817effffffffffffffffffffffffffffffffffffffffffffffffffffffffffffff1916145b806125da5750601460f81b817effffffffffffffffffffffffffffffffffffffffffffffffffffffffffffff1916145b156125e55750612bdf565b7f3a00000000000000000000000000000000000000000000000000000000000000817effffffffffffffffffffffffffffffffffffffffffffffffffffffffffffff1916141561264657600186602001510386604001818152505050612bdf565b7f2c00000000000000000000000000000000000000000000000000000000000000817effffffffffffffffffffffffffffffffffffffffffffffffffffffffffffff19161415612837577fffffffffffffffffffffffffffffffffffffffffffffffffffffffffffffffff8660400151141580156126fa5750600260048111156126cc57fe5b8a87604001518151811015156126de57fe5b906020019060200201516000015160048111156126f757fe5b14155b801561273c57506001600481111561270e57fe5b8a876040015181518110151561272057fe5b9060200190602002015160000151600481111561273957fe5b14155b1561283157600186602001510392505b600083101515612830576002600481111561276357fe5b8a8481518110151561277157fe5b9060200190602002015160000151600481111561278a57fe5b14806127c757506001600481111561279e57fe5b8a848151811015156127ac57fe5b906020019060200201516000015160048111156127c557fe5b145b156128225789838151811015156127da57fe5b9060200190602002015160400151801561280d575089838151811015156127fd57fe5b9060200190602002015160800151155b156128215782866040018181525050612830565b5b82806001900393505061274c565b5b50612bdf565b7f3000000000000000000000000000000000000000000000000000000000000000817effffffffffffffffffffffffffffffffffffffffffffffffffffffffffffff1916101580156128cb57507f3900000000000000000000000000000000000000000000000000000000000000817effffffffffffffffffffffffffffffffffffffffffffffffffffffffffffff191611155b8061291757507f2d00000000000000000000000000000000000000000000000000000000000000817effffffffffffffffffffffffffffffffffffffffffffffffffffffffffffff1916145b8061296357507f6600000000000000000000000000000000000000000000000000000000000000817effffffffffffffffffffffffffffffffffffffffffffffffffffffffffffff1916145b806129af57507f7400000000000000000000000000000000000000000000000000000000000000817effffffffffffffffffffffffffffffffffffffffffffffffffffffffffffff1916145b806129fb57507f6e00000000000000000000000000000000000000000000000000000000000000817effffffffffffffffffffffffffffffffffffffffffffffffffffffffffffff1916145b15612b61577fffffffffffffffffffffffffffffffffffffffffffffffffffffffffffffffff8660400151141515612ac357898660400151815181101515612a3f57fe5b90602001906020020151915060016004811115612a5857fe5b82600001516004811115612a6857fe5b1480612aa2575060036004811115612a7c57fe5b82600001516004811115612a8c57fe5b148015612aa1575060008260a0015160ff1614155b5b15612ac25760018a60008090509a509a509a505050505050505050612c0a565b5b612ace868b8a6136df565b9450600085141515612af457848a60008090509a509a509a505050505050505050612c0a565b83806001019450507fffffffffffffffffffffffffffffffffffffffffffffffffffffffffffffffff8660400151141515612b5b57898660400151815181101515612b3b57fe5b9060200190602002015160a001805180919060010160ff1660ff16815250505b50612bdf565b602060f81b817effffffffffffffffffffffffffffffffffffffffffffffffffffffffffffff191610158015612bbd5750607e60f81b817effffffffffffffffffffffffffffffffffffffffffffffffffffffffffffff191611155b15612bdd5760018a60008090509a509a509a505050505050505050612c0a565b505b84600001805180919060010181525050611fd3565b6000898660200151995099509950505050505050505b9250925092565b60608084905060608484036040519080825280601f01601f191660200182016040528015612c4e5781602001600182028038833980820191505090505b50905060008590505b84811015612cc6578281815181101515612c6d57fe5b90602001015160f81c60f81b82878303815181101515612c8957fe5b9060200101907effffffffffffffffffffffffffffffffffffffffffffffffffffffffffffff1916908160001a9053508080600101915050612c57565b5080925050509392505050565b6000612cdd613c0a565b61026060405190810160405280603060ff168152602001603160ff168152602001603060ff168152602001600d60ff168152602001600660ff168152602001600960ff168152602001606060ff168152602001608660ff168152602001604860ff168152602001600160ff168152602001606560ff168152602001600360ff168152602001600460ff168152602001600260ff168152602001600160ff168152602001600560ff168152602001600060ff168152602001600460ff168152602001602060ff168152509050600b602060ff1660130101835110151515612dc257600080fd5b60006060612dd18787876139db565b90506000815190506000865190506060816040519080825280601f01601f191660200182016040528015612e145781602001600182028038833980820191505090505b5090508160208201846020870160056107d05a03fa506000602060136003850303039050600060f81b826000815181101515612e4c57fe5b90602001015160f81c60f81b7effffffffffffffffffffffffffffffffffffffffffffffffffffffffffffff1916141580612ea857506001826001815181101515612e9357fe5b90602001015160f81c60f81b60f81c60ff1614155b15612ebd5760019750505050505050506130b3565b600295505b80600201861015612f325760ff60f81b8287815181101515612ee057fe5b90602001015160f81c60f81b7effffffffffffffffffffffffffffffffffffffffffffffffffffffffffffff1916141515612f255760029750505050505050506130b3565b8580600101965050612ec2565b600060f81b8282600201815181101515612f4857fe5b90602001015160f81c60f81b7effffffffffffffffffffffffffffffffffffffffffffffffffffffffffffff1916141515612f8d5760039750505050505050506130b3565b600095505b6013861015612ffa578686601381101515612fa957fe5b602002015160ff1682878360030101815181101515612fc457fe5b90602001015160f81c60f81b60f81c60ff16141515612fed5760049750505050505050506130b3565b8580600101965050612f92565b600095505b602060ff168610156130a7578b8660208110151561301957fe5b1a60f81b7effffffffffffffffffffffffffffffffffffffffffffffffffffffffffffff19168287601384600301010181518110151561305557fe5b90602001015160f81c60f81b7effffffffffffffffffffffffffffffffffffffffffffffffffffffffffffff191614151561309a5760059750505050505050506130b3565b8580600101965050612fff565b60009750505050505050505b949350505050565b6130c3613b9f565b60606130cd613b9f565b60606040519081016040528060008152602001600081526020017fffffffffffffffffffffffffffffffffffffffffffffffffffffffffffffffff815250905060608460405190808252806020026020018201604052801561314957816020015b613136613c2e565b81526020019060019003908161312e5790505b5090508181935093505050915091565b6000613163613bc1565b8251846020015110151561319b57600083600185510381518110151561318557fe5b9060200190602002015180905091509150613224565b6131a3613bc1565b60c060405190810160405280600060048111156131bc57fe5b81526020016000815260200160001515815260200160008152602001600015158152602001600060ff168152509050808486602001518151811015156131fe57fe5b906020019060200201819052508460200180518091906001018152505060018192509250505b9250929050565b60008084600001519050600061323f613bc1565b866000018051809190600101815250505b8451876000015110156136c657600085886000015181518110151561327157fe5b90602001015160f81c60f81b90507f2200000000000000000000000000000000000000000000000000000000000000817effffffffffffffffffffffffffffffffffffffffffffffffffffffffffffff1916141561331a576132d38888613159565b80935081945050508215156132f9578388600001818152505060039450505050506136d8565b61330d826003600187018b60000151613aaf565b60009450505050506136d8565b605c8160f81c60ff16148015613337575085516001896000015101105b156136af57876000018051809190600101815250507f220000000000000000000000000000000000000000000000000000000000000086896000015181518110151561337f57fe5b90602001015160f81c60f81b7effffffffffffffffffffffffffffffffffffffffffffffffffffffffffffff1916148061341757507f2f000000000000000000000000000000000000000000000000000000000000008689600001518151811015156133e757fe5b90602001015160f81c60f81b7effffffffffffffffffffffffffffffffffffffffffffffffffffffffffffff1916145b8061348057507f5c0000000000000000000000000000000000000000000000000000000000000086896000015181518110151561345057fe5b90602001015160f81c60f81b7effffffffffffffffffffffffffffffffffffffffffffffffffffffffffffff1916145b806134e957507f66000000000000000000000000000000000000000000000000000000000000008689600001518151811015156134b957fe5b90602001015160f81c60f81b7effffffffffffffffffffffffffffffffffffffffffffffffffffffffffffff1916145b8061355257507f720000000000000000000000000000000000000000000000000000000000000086896000015181518110151561352257fe5b90602001015160f81c60f81b7effffffffffffffffffffffffffffffffffffffffffffffffffffffffffffff1916145b806135bb57507f6e0000000000000000000000000000000000000000000000000000000000000086896000015181518110151561358b57fe5b90602001015160f81c60f81b7effffffffffffffffffffffffffffffffffffffffffffffffffffffffffffff1916145b8061362457507f62000000000000000000000000000000000000000000000000000000000000008689600001518151811015156135f457fe5b90602001015160f81c60f81b7effffffffffffffffffffffffffffffffffffffffffffffffffffffffffffff1916145b8061368d57507f740000000000000000000000000000000000000000000000000000000000000086896000015181518110151561365d57fe5b90602001015160f81c60f81b7effffffffffffffffffffffffffffffffffffffffffffffffffffffffffffff1916145b1561369857506136b1565b8388600001818152505060019450505050506136d8565b505b86600001805180919060010181525050613250565b82876000018181525050600293505050505b9392505050565b600080600090506000856000015190506000806136fa613bc1565b5b8651896000015110156139585786896000015181518110151561371a57fe5b90602001015160f81c60f81b92507f2000000000000000000000000000000000000000000000000000000000000000837effffffffffffffffffffffffffffffffffffffffffffffffffffffffffffff191614806137b957507f0900000000000000000000000000000000000000000000000000000000000000837effffffffffffffffffffffffffffffffffffffffffffffffffffffffffffff1916145b8061380557507f0a00000000000000000000000000000000000000000000000000000000000000837effffffffffffffffffffffffffffffffffffffffffffffffffffffffffffff1916145b8061385157507f0d00000000000000000000000000000000000000000000000000000000000000837effffffffffffffffffffffffffffffffffffffffffffffffffffffffffffff1916145b8061389d57507f2c00000000000000000000000000000000000000000000000000000000000000837effffffffffffffffffffffffffffffffffffffffffffffffffffffffffffff1916145b806138cd5750607d60f81b837effffffffffffffffffffffffffffffffffffffffffffffffffffffffffffff1916145b806138fd5750605d60f81b837effffffffffffffffffffffffffffffffffffffffffffffffffffffffffffff1916145b1561390b5760019450613958565b60208360f81c60ff1610806139265750607f8360f81c60ff16115b1561394357838960000181815250506001955050505050506139d4565b886000018051809190600101815250506136fb565b84151561397757838960000181815250506002955050505050506139d4565b6139818989613159565b80925081935050508115156139a857838960000181815250506003955050505050506139d4565b6139b9816004868c60000151613aaf565b88600001805180919060019003815250506000955050505050505b9392505050565b60606000825184518651606001010190506000855190506000855190506000855190506000806000806060886040519080825280601f01601f191660200182016040528015613a395781602001600182028038833980820191505090505b50905060208d01945060208c01935060208b019250876020820152866040820152856060820152602081019150613a7560608301868f51613b20565b613a878d516060840101858e51613b20565b613a9c8c518e51606085010101848d51613b20565b8099505050505050505050509392505050565b8284600001906004811115613ac057fe5b90816004811115613acd57fe5b8152505081846020018181525050600184604001901515908115158152505080846060018181525050600184608001901515908115158152505060008460a0019060ff16908160ff168152505050505050565b5b602081101515613b465781518352602083019250602082019150602081039050613b21565b60006001826020036101000a0390508019835116818551168181178652505050505050565b604080519081016040528060008152602001600081525090565b604080519081016040528060008152602001600081525090565b6060604051908101604052806000815260200160008152602001600081525090565b60c06040519081016040528060006004811115613bda57fe5b81526020016000815260200160001515815260200160008152602001600015158152602001600060ff1681525090565b61026060405190810160405280601390602082028038833980820191505090505090565b60c06040519081016040528060006004811115613c4757fe5b81526020016000815260200160001515815260200160008152602001600015158152602001600060ff168152509056fe00000000000000000000000000000000000000000000000000000000000000000000000000000000000000000000000000000000000000000000000000000000000000000000000000000000000000000000000000000000000000000000000000000000000000000000000000000000000000000000000000000000000100014142434445464748494a4b4c4d4e4f505152535455565758595a6162636465666768696a6b6c6d6e6f707172737475767778797a303132333435363738392d5fb0ca0a0eeba26cda6c0fa56527056d49c91045cfd6598a050f7ca831173416426f3630264221c94b8189f19cbfa2073682ce16a459c5e59978320ffc9af811a8e9b1264c4dd3b32339791458efd65776229ff82ce26389bacfb606fdfd05ad0253045931b7bfd1383ca5d2e5f49796c828a59321f1632ced38fe66fd668d9c2851f47e50cf337a1fe37c189da93e2cfc5cfcb833c06f749ff405e33c94aea36d120b622e9c61beaddf677458eea985c6567c7a54b3f6d079fbfb6c563548c0349e5d08972d9e6be932e69001ab0390363a342a9a874c70b231eb0b0cd90d4599d914c7adf755ee5e5012099aa1dc5a7152b598b8f90c2b16842a26f650fe5e6f4578706563746564204a575420746f20636f6e7461696e206f6e6c7920737472696e67206b657973a165627a7a7230582097a072e5588b4b9426039a1e5dfdcb9efa140ccdff3d008d85c56ce6efff844a0029",
  "source": "pragma solidity ^0.5.0;\n\nimport \"./Identity.sol\";\n\ncontract TestIdentity is Identity {\n  bytes private constant rsaExponent = hex\"0000000000000000000000000000000000000000000000000000000000000000000000000000000000000000000000000000000000000000000000000000000000000000000000000000000000000000000000000000000000000000000000000000000000000000000000000000000000000000000000000000000000010001\";\n  bytes private constant rsaModulus = hex\"B0CA0A0EEBA26CDA6C0FA56527056D49C91045CFD6598A050F7CA831173416426F3630264221C94B8189F19CBFA2073682CE16A459C5E59978320FFC9AF811A8E9B1264C4DD3B32339791458EFD65776229FF82CE26389BACFB606FDFD05AD0253045931B7BFD1383CA5D2E5F49796C828A59321F1632CED38FE66FD668D9C2851F47E50CF337A1FE37C189DA93E2CFC5CFCB833C06F749FF405E33C94AEA36D120B622E9C61BEADDF677458EEA985C6567C7A54B3F6D079FBFB6C563548C0349E5D08972D9E6BE932E69001AB0390363A342A9A874C70B231EB0B0CD90D4599D914C7ADF755EE5E5012099AA1DC5A7152B598B8F90C2B16842A26F650FE5E6F\";\n\n  constructor(string memory sub, string memory aud)\n    Identity(sub, aud, JWKS(0))\n    public payable { }\n\n  function getRsaExponent(string memory) internal pure returns (bytes memory) {\n    return rsaExponent;\n  }\n\n  function getRsaModulus(string memory) internal view returns (bytes memory) {\n    return rsaModulus;\n  }\n}",
  "sourcePath": "/Users/calebsirak/solidity-jwt/contracts/TestIdentity.sol",
  "compiler": {
    "name": "solc",
    "version": "0.5.4+commit.9549d8ff.Emscripten.clang"
  },
  "schemaVersion": "3.4.10",
  "updatedAt": "2023-02-02T20:07:58.349Z",
  "devdoc": {
    "methods": {}
  },
  "userdoc": {
    "methods": {}
  }
}